:020000040000fa
:080000000002040000000000f2
:020000040000fa
:100008002a040000b2be00002a0400002ebf00002f
:10001800eabe00002a0400002a0400002a040000a6
:100028002a0400002a0400002a040000c2d00000ac
:100038002a0400002a0400006ccd0000f6cc000061
:100048002a0400002a0400002a0400002a040000f0
:100058002a0400002a0400002a0400002a040000e0
:100068002a0400002a0400002a040000d0b9000075
:100078002a0400002a0400002a0400002a040000c0
:100088002a0400002a0400002a04000062ba0000c2
:100098002a0400002a0400002a0400002a040000a0
:1000a8002a0400002a0400002a0400002a04000090
:1000b8002a0400002a0400002a0400002a04000080
:1000c8002a0400002a0400002a0400002a04000070
:1000d8002a0400002a0400002a0400002a04000060
:1000e8002a0400002a0400002a0400002a04000050
:1000f8002a0400002a0400002a0400002a04000040
:100108002a0400002a0400002a0400002a0400002f
:100118002a0400002a0400002a0400002a0400001f
:100128002a0400002a0400002a0400002a0400000f
:100138002a0400002a0400002a0400002a040000ff
:100148002a0400002a0400002a0400002a040000ef
:100158002a0400002a0400002a0400002a040000df
:100168002a0400002a0400002a0400002a040000cf
:100178002a0400002a0400002a0400002a040000bf
:100188002a0400002a0400002a0400002a040000af
:100198002a0400002a0400002a0400002a0400009f
:1001a8002a0400002a0400002a0400002a0400008f
:1001b8002a0400002a0400002a0400002a0400007f
:1001c8002a0400002a0400002a0400002a0400006f
:1001d8002a0400002a0400002a0400002a0400005f
:1001e8002a0400002a0400002a0400002a0400004f
:1001f8002a0400002a0400002a0400002a0400003f
:100208002a0400002a0400002a0400002a0400002e
:100218002a0400002a0400002a0400002a0400001e
:100228002a0400002a0400002a0400002a0400000e
:100238002a0400002a0400002a0400002a040000fe
:100248002a0400002a0400002a0400002a040000ee
:100258002a0400002a0400002a0400002a040000de
:100268002a0400002a0400002a0400002a040000ce
:0c0278002a0400002a0400002a040000f0
:020000040000fa
:100400000fbf27000eff27000e018800000000002c
:10041000000020000000e000020032000001200087
:10042000200288000c000700601521000100200058
:100430000f000700000020000000e0000200320072
:10044000000002000000000014d0020000000000c4
:100450000040da000000fe00200020000000e00064
:100460000200320010002000900188000000060009
:10047000a1028800800078000000eb001a0037001d
:10048000e280400054a0b4009101ba00e280400034
:1004900054a0b4009102ba00e280400054a0b4001d
:1004a0000002eb00472bde00f507b200a601880032
:1004b000602ce10008003a000049eb000201e8006e
:1004c000020039003420ec0002f0a0008301e900b2
:1004d000f9ff3e00040037006128e100010032000e
:1004e0000082eb00040007001101ba000200e000e6
:1004f000e3ff3a000000060004d0a300e20f490029
:100500001c003900810278003549ba000201e80078
:10051000020039003420ec0002f0a0008301e90061
:100520000f0032002549ba000201e800020039003c
:100530003420ec0002f0a0008301e9000800320042
:100540000400e0000600320015c9ba000201e8000c
:10055000020039003420ec0002f0a0008301e90021
:100560008180e80054a0b4000300e000e2ff3a00fc
:10057000000006009102ba00055978008301e900e5
:10058000f7ff3200c82ade00055978008301e90030
:10059000f3ff32000400e000f1ff320011d9ba008d
:1005a000eeff3700ac7b040000000000a67d0400d5
:1005b00000000000f67b0400000000002a7c04001c
:1005c0000000000016a6040000000000fea40400c5
:1005d0000000000056a30400000000004ca204002c
:1005e000000000007a50040000000000d25f040008
:1005f000000000004e5f0400000000006054040092
:1006000000000000285f0400000000009c5004006f
:10061000000000004c5e040000000000745a04005a
:1006200000000000725d040000000000f2bd040044
:10063000000000002c52040000000000265d0400b1
:10064000000000000e74040000000000a86b04000d
:100650000000000044560400000000009e6b0400ef
:1006600000000000946b0400000000008a6b04008e
:1006700000000000c061040000000000aa6904003e
:100680000000000072500400000000009a610400a5
:10069000000000007c6b04000000000016710400e4
:1006a0000000000066700400000000005e500400be
:1006b000000000007a61040000000000c661040030
:1006c000000000007a740400000000002c6c04009c
:1006d00000000000726b0400000000006e6804005f
:1006e00000000000046e0400000000002661040009
:1006f000000000001272040000000000686b04009b
:1007000000000000be630400000000005e6b0400f7
:100710000000000004680400000000007c6d04007c
:1007200000000000546b0400000000006a6d04002b
:10073000000000004a6b040000000000b26c0400de
:1007400000000000d26804000000000018610400ee
:10075000000000007650040000000000406b040020
:1007600000000000346c040000000000b0500400e1
:1007700000000000b2680400000000000a610400ec
:1007800000000000366b0400000000002c6b040029
:1007900000000000226b040000000000186b040041
:1007a000000000007850040000000000846804008d
:1007b000000000000e6b040000000000046b040049
:1007c00000000000fa6a040000000000f06a040063
:1007d00000000000e66a040000000000dc6a04007b
:1007e00000000000d26a040000000000c86a040093
:1007f00000000000246c040000000000ec60040015
:1008000000000000be6a040000000000de6004007a
:1008100000000000b46a040000000000aa6a04009e
:1008200000000000b273040000000000d06004006b
:10083000000000008860040000000000d46704008d
:10084000000000007450040000000000a06a0400d2
:10085000000000000040da000000fe000003b100cc
:100860000b0035009000b100080034008000b1009a
:10087000070035009001b100040034007000b100a1
:10088000030035009001b10001003c00100005009c
:10089000000005001004b100070035009001b10010
:1008a000040034007000b100030035009001b10075
:1008b00001003c0010000500000005000003b1002d
:1008c0000b0035009000b100080034008000b1003a
:1008d000070035005000b10004003400b001b10041
:1008e000030035005000b10001003c00100005007d
:1008f000000005000100e00001003a0011002000a6
:10090000010878007c0040003007be00b01f78006e
:10091000a01f7800640050004006be004005be00e5
:100920004004be004003be004002be004001be00c5
:100930004000be00000006000098be000298be0005
:100940000498be000698be000898be000a98be0033
:100950000c98be000e18780064985700efb8970006
:1009600001187800ffb89700011878000000050012
:10097000800078001106b100030035009101b1003c
:1009800001003c000050a100000006000a00fa002f
:10099000e20f500020003e00604d8100e10f50004a
:1009a000060032008023200045232000232320005e
:1009b000042320000000e00004003a008022200010
:1009c00045222000232220000422200006002800c7
:1009d0001403630003003a000608780000002800b2
:1009e000140a700013a8a30001003a0013a0a0008d
:1009f00002007800050037001388a300feff3200d4
:100a00003102fb00840a78000000e9000000e000e9
:100a1000f9ff3a000800370033002000b3bf9f0001
:100a2000c0bf9f00d1bf9f00e2bf9f006a805700f8
:100a3000140507006fb99700020078000080fa00e3
:100a400000000600839f68000100e00002003d00f6
:100a500060001000e08018000300e00002003d008c
:100a600060011100e0811900140007004f00e00050
:100a700002003b0060001000e0801800000006004b
:100a8000811f78000100e00002003d0060001000be
:100a9000e08018000300e00002003d00600111004a
:100aa000e0811900150007004f00e00002003b0044
:100ab00060001000e0801800000006006022b8000e
:100ac000060220000000d0008180d2000482d20003
:100ad0008582d2000000a0000202520083825a00e8
:100ae000030031000202420083824a000000a1009c
:100af0000603e900f3ff3a0000000600efff0700dd
:100b00000400be0000000600889fbe008a9fbe0051
:100b10008c1f78000006eb00e00f5000e08f5800bb
:100b2000e00f5900e08f590007003d006044b80015
:100b30006055b8000000540081805c0002015d0037
:100b400083815d001c002000e00f5200e08f5a00fe
:100b5000e00f5b00e08f5b0007003d006044b800e1
:100b60006055b8000402540085825c0006035d00f5
:100b700087835d000c00a2000c0007000c00e00061
:100b8000060032006022b8006033b8000000520056
:100b900081805a0002015b0083815b004f06780070
:100ba0004f05be004f04be0000000600889fbe0037
:100bb0008a9fbe008c9fbe000404b8000506b800e2
:100bc0008904460060854e000606b8000a05460006
:100bd000e0854e000706b8008b054600040eb800fd
:100be000890446000a854e00e0854d00050eb800d8
:100bf0000a0546008b854e00060eb8008b054600a0
:100c00000416b8000a0546008b854e000516b8008c
:100c10008b054600041eb8008b0546000800be0088
:100c20000a01be004f06be004f05be004f04be00c5
:100c30000000060080007800010078003041780054
:100c400003c2b300834f5100faff3200e94f510055
:100c5000f8ff3200edc14100834f510003003a001c
:100c60008000780013c0b300050037008041eb001e
:100c7000b4c2b300844f510001003a0080007800f4
:100c80000000eb0002003700ea00b900000041005c
:100c90003101fb000203b100e90f5100faff3600f9
:100ca0000304e000010032000000ea00000006003a
:100cb0008001780002003700b15978000201e90094
:100cc0000200e000fcff3a0000000600800178000e
:100cd000808f50000900310002824000800f5200d6
:100ce000060036008401780082004000c36078006e
:100cf0000201e900fdff3a00000006000200e000ea
:100d000003003200b15978000201e900fbff37000f
:100d10000000060080017800020037008159780049
:100d20000201e9000200e000fcff3a0000000600ba
:100d30000001780002007800b041780081cf5100b6
:100d4000030032000304e000f9ff3a000001eb0069
:100d50000200780000000600b041780031c1510067
:100d600002003a000304e000fbff3a000200fb002f
:100d70000000060000017800b141780003597800b6
:100d80000304e000fcff3a00000006008000780049
:100d90003104e000feff3a000080ea0000804000dd
:100da000000006000a003700b04178000304e000ac
:100db000030032000201e900b1cf5100040032000b
:100dc0008381fb001480fb000080510000000600be
:100dd000010278000200e000f3ff3a000000050085
:100de00080017800060037000201e900b142780076
:100df00085597800030278000504e00006003200ff
:100e0000030278000200e000f7ff3a00020037001a
:100e1000005aeb000201e9000200e000fcff3a008a
:100e200000000600889fbe000004be000800780095
:100e3000d6ff07000000440090cf140005003200e8
:100e4000880f5000020032000000e900faff37006e
:100e50000000eb004f04be0000000600889fbe00ab
:100e60000004be000b00370009007800c7ff070030
:100e7000000178000800be00caff07000000e00083
:100e8000090032000800e8009900fb00a8ff0700f5
:100e9000000478000800e000030032001804e000bd
:100ea000f1ff3a000004eb00080078004f04be0098
:100eb000000006000c00fa00889fbe0000047800c5
:100ec000f0ff2700d0bf9f008004eb0099bf9f0078
:100ed00088bf9f00a8bf9f00200c2000b0bf9f00cc
:100ee00078815700cfb0970070805700100007003e
:100ef0000fb89700094878008fb897000880500015
:100f00004f04be000080fa0000000600d0019000ef
:100f1000028151004240a900030034001001780012
:100f2000014978000208e80001007800000006008e
:100f3000fe874700889fbe008a9fbe008c9fbe0030
:100f40008e1f780080067800d1af9f0092b79f0077
:100f50000007eb003d033700dfa897008100e800a1
:100f6000d1af9f0051c2b300814f500003003a003f
:100f70005fa897000006eb0011003700bd0090004d
:100f80000000fb000168a300070032000e0178009a
:100f9000800078000d007800dcff07000000e00012
:100fa00005003a00290337008d007800330307005d
:100fb000e10f4000250332000e07e800230337004d
:100fc0008000780030417800d3c2b300834f5100d5
:100fd0000c00320007003c00edc15100834f51006e
:100fe0000a003200ebc14100834f51000d003a006e
:100ff0000800370003c3b300834f510009003a00d3
:10100000060037000c30a000edff37000c00a000f8
:10101000ebff37000c10a000e9ff37000c20a00008
:10102000e7ff37000c18a300010032000c00a100fc
:101030000c38a300010032000c20a1000200fb00cc
:101040000003b100e90f50000c003e0001017800e0
:101050000000eb00ea00b900b200fb000103b100a0
:1010600000804000820078009201fb000303b10081
:10107000e98f5100f7ff3600080037000000eb0051
:10108000a3c2b300834f510004003a001fb1970080
:101090004200780092b79f008100e8008001eb00d9
:1010a000a3b79f00e2c2b300914f11000c003a00b9
:1010b0000ce0a00064415100d14f11000300320048
:1010c0000101780003027800090037001fb2970081
:1010d000c402780094b79f00a5b79f008100e80084
:1010e0000101780009003700ea22b90004824100ba
:1010f00082007800b201fb000303b100e98f5100c8
:10110000f9ff3600a4b79f00f5ff3700b240780022
:10111000d2af9f00c3c6b30083cf5000250032007a
:101120000f003c0032c6b30082cf5000a000320056
:1011300004003c000104e000c90232006b41510090
:101140000f00370042c6b30082cf500017003200b4
:101150006541410082cf5000b3003a0013003700d0
:1011600032c7b30082cf50001f00320007003c009e
:101170006441510082cf5000140032000241e80067
:1011800082cf5000a8003a001300370052c7b300c6
:1011900082cf5000ab0032006341410082cf50004b
:1011a000a1003a00e1d79f000d003700e1d79f0072
:1011b000a6003700010120000c48a3000100320006
:1011c000010028000c867000d0ff3700e1d79f0097
:1011d0000c60a0009d003700e1d79f000c50a000dc
:1011e0000c70a00099003700e1d79f009fb39700d3
:1011f000c700780097b79f00b1b79f000100e000db
:1012000002003a00897c2200b9b79f003fb19700e5
:101210008000eb00010037008100e80081014100ff
:101220001304e000fcff3a00c1b79f002fb5970000
:101230000a00e00005003200cfb597008b0f550083
:10124000020031008a007800c1b79f00cfb097003c
:101250000004eb00810f5000010036000104500033
:10126000680666002b003a00110037003d00900030
:101270000068a300070032000e0178000102200080
:101280000d00780021ff07000000e00006003a0092
:10129000060037008d00780000022000770207006a
:1012a000e10f4000010032000e07e8000804e900e9
:1012b0000800e000edff3a000084eb001500370065
:1012c0003d0090000068a30009003200080078008b
:1012d000b000fb00000478000e0178000d007800db
:1012e0000aff07000000e00008003a000f00370086
:1012f000880078003100fb00010478008d00780040
:101300005e020700e10f4000080032000e07e8000f
:1013100006003700acb79f00080678003fb497007e
:10132000cfb497005fb59700efb59700090078003c
:101330008004e9000000e000e1ff3a00b8b79f0038
:10134000c9b79f00dab79f00ebb79f000c04780085
:101350002fb697000c00e0003c023200110037006d
:101360003d0090000068a300070032000e017800e5
:10137000010220000d007800e4fe07000000e000fc
:1013800006003a00060037008d00780000022000b9
:101390003a020700e10f4000010032000e07e800aa
:1013a0000804e9000800e000edff3a0027023700da
:1013b0009fb297004504780095b79f00cfc4de0028
:1013c000614db9000802be000a03be004822de00db
:1013d000c828dd0004827000e4d79f000c48a300f9
:1013e000090032000404e00007003200e14f42002f
:1013f00005003200f4d79f0088df9f002200200004
:10140000c2b79f0003003700f8d79f0013002000e9
:10141000c3b79f0064fd2f000f0242000402e800e2
:10142000b4b79f0081ff3700e1d79f0065fd2f0013
:1014300085824700b5b79f0016002000c6b79f0001
:101440007aff3700e1d79f000c0cb3008c007800c6
:10145000010cb20032003a000c00e00005003d0033
:101460009fb097004105be004104be0091b79f00a8
:10147000080037000c48a3000b0032001fb2970091
:101480004401be0094b79f000204be004fcdde00b1
:101490008a057800b8b79f00c9b79f00dab79f00e8
:1014a000ebb79f00090037009fb49700c900780090
:1014b00099b79f00610ab900612bb900b4b79f00ca
:1014c000c5b79f00d6b79f00e7b79f003fb497000e
:1014d000cfb497005fb59700efb59700e00f5400c9
:1014e000e08f5c00e00f5d00e08f5d0022003d00ba
:1014f0003c00b3006022b8006033b800080452001a
:1015000089845a000a055b008b855b00b8b79f0091
:10151000c9b79f00dab79f00ebb79f0016003700ee
:101520000c00e00004003d001fb497004803be001b
:101530004802be00050037000c48a3000500320039
:101540001fb497004802be006033b80098b79f00f0
:10155000050037009fb49700c900780099b79f0035
:10156000610ab8006033b800b4b79f00c5b79f00e8
:10157000d6b79f00e7b79f00afb297000500e00025
:101580000d003a0016002000a6b79f003fb4970058
:10159000cfb497005fb59700efb59700e00f540008
:1015a000e08f5c00e00f5d00e08f5d000200320024
:1015b0008004eb00a9b79f000c0578000a0cb2006c
:1015c0008ab79f0001042000810f550034003200cb
:1015d00003003c000a00e000080032004800370029
:1015e000010820008fb59700818f5500140032004c
:1015f000010c2000818f550041003a00827d2200bd
:1016000011c0b3003202be003203be003fb49700e7
:10161000cfb497005fb59700efb597000440e100a5
:1016200005c8e10006d0e10007d8e1003300390029
:101630008140e800f4cf5000f2ff3a002f0037005d
:1016400011c0b30004012000050020006033b80081
:101650003fb49700cfb497005fb59700efb5970000
:101660000440e10005c8e10006d0e10007d8e10030
:1016700022003900490020000402d0008582d200f7
:101680000683d2008783d2008904e900faff3a007a
:101690008140e800f0cf5000edff3a00170037001e
:1016a00011c0b30084002000050020006033b800a2
:1016b0003fb49700cfb497005fb59700efb59700a0
:1016c0000440e10005c8e10006d0e10007d8e100d0
:1016d0000a003900390020000402d0008582d200bf
:1016e0000683d2008783d2008904e900faff3a001a
:1016f0008140e800f5cf5000edff3a00e1d79f00b0
:101700006fd597008a00fb00afb597008b8f500014
:1017100002003d00ebd79f00040037002fb1970077
:10172000810f510001003d00a1b79f000000e000c3
:1017300003003200e3006600010032000000e9000f
:101740000ce8a30006003200afb19700830f5000f1
:101750000200340003005000010037000000eb00dd
:101760006fd297008400fb008002eb00f5af9f0072
:10177000810f50000200340081005000f1af9f0043
:101780000c28a3003c003200610166000c18a30085
:101790000f0032003d0090000068a30006003200f8
:1017a000b10220000200e000010032008180e80068
:1017b0000e0178000d003700b00220000200e000aa
:1017c000010032000080e8008d0078000e00370034
:1017d0000200e000100032003d0090000068a3000d
:1017e000070032000e017800010220000d00780091
:1017f000c6fd07000000e00006003a0006003700c2
:101800008d007800000220001c010700e10f40005d
:10181000010032000e07e8007fab97000600e000f1
:1018200052003200060478003d0090000068a300da
:10183000070032000e017800010320000d0078003f
:10184000b2fd07000000e00006003a000600370085
:101850008d0078000003200008010700e10f400020
:10186000010032000e07e8000804e900eeff3a002c
:10187000f8af9f003d003700ffab97000700e00086
:10188000160032000c38a30014003a000704780058
:101890003d0090000068a300070032000e017800b0
:1018a000010220000d00780098fd07000000e00014
:1018b00006003a00060037008d0078000002200084
:1018c000ee000700e10f4000010032000e07e800c3
:1018d0000804e900eeff3a00f8af9f0061016600de
:1018e0000c18a3000f0032003d0090000068a30018
:1018f00006003200b10220000200e00001003200c8
:101900008180e8000e0178000d003700b002200051
:101910000200e000010032000080e8008d00780045
:101920000e0037000200e000100032003d00900081
:101930000068a300070032000e01780001022000b9
:101940000d00780071fd07000000e00006003a007d
:10195000060037008d00780000022000c700070055
:10196000e10f4000010032000e07e8002fb497009d
:101970008800e900c308dd00007d220000804000ef
:10198000e0af9f0096003700afb497008904e900ec
:10199000a9b79f00000420000fb59700800f5500e5
:1019a0006a00320003003c000a00e0000800320038
:1019b00077003700000820008fb59700808f550012
:1019c0004c003200000c2000808f550070003a005f
:1019d0000c00e0001e003d006fa897003004be0020
:1019e0002005be000802be000a03be003fb09700fb
:1019f000cfb097005fb19700efb19700c201070029
:101a0000e0d79f000000fb00cf80de006109b90035
:101a10000802be000a03be003bfc07003fb297006d
:101a2000cfb297005fb39700efb397000002520068
:101a300081825a0002035b0083835b00b4b79f007e
:101a4000c5b79f00d6b79f00e7b79f0025003700b6
:101a50000c48a3001a0032003fb29700cfb29700a3
:101a60006fab97003604be002605be000801be001d
:101a70000400be00f4b79f0085bf9f000ffc070065
:101a8000e0d79f000000fb00cf80de000801be0011
:101a9000fe0007007fb297008fba97000002520045
:101aa00081825a000404be006055b800b8b79f0098
:101ab000c9b79f00dab79f00ebb79f000900370056
:101ac000efac9700190178003fb5970011000900ad
:101ad0000285d800a2002000110009000280d80071
:101ae000e1d79f00efd597000b43b000ebd79f00e5
:101af00027003700707b22000c58a3000100320041
:101b0000607a22002fb19700c210dd003fb297002b
:101b1000cfb297005fb39700efb397008100e90061
:101b2000050033008703d1000683d3008582d300ec
:101b30000482d300f9ff37006f0262000402400004
:101b400014427800e4d79f0011003700afb197002e
:101b5000e318b9003fb29700cfb297005fb3970088
:101b6000efb39700000478000804e9000500330093
:101b70008703d1000683d3008582d3000482d3007b
:101b8000f9ff3700674062000043b000e0d79f00d4
:101b9000bd009000efd497000900fb000168a3008e
:101ba000070032000e017800800078000d007800f8
:101bb000d6fc07000000e00005003a0005003700f1
:101bc0008d0078002d000700e10f40000100320079
:101bd0000e07e8006fad970068055500eaaf9f005b
:101be000afb597000b00e00067ff3a000c38a30088
:101bf000160032007fa897000000e00013003400b8
:101c0000000478003d0090000068a3000700320047
:101c10000e017800010220000d007800bbfc0700d7
:101c20000000e00006003a00060037008d00780052
:101c30000002200011000700e10f40000100320007
:101c40000e07e8000804e900eeff3a00dfa897005d
:101c500011407800e0d79f000004e000befc3a008d
:101c60000e0078004f0778004f06be004f05be00fb
:101c70004f04be00ef01b10000000600889fbe00c7
:101c800001047800b80090008084eb000118a300e4
:101c90003a003200180190000198a30002003a00b7
:101ca0000200e00035003a000190a00031049800e5
:101cb00080047800f90fb2000200e00002003a0050
:101cc00028009000000c7800ea8f540005003a00cc
:101cd0000178a30003003a0088007800d0002000bb
:101ce000e6ff070018009000d8009000810f500018
:101cf0000b0032000000e800100498001800780083
:101d000009487800000ce80011c0b300409a220096
:101d100001487800ea8f540018003a0005003700a7
:101d200088007800094078001700070080047800d8
:101d300012003700380090000088a3000f00320026
:101d400018019000a8009000480090000ffb0700c9
:101d500098009000810f500004003200380090007d
:101d60000003b300300498008084eb000000eb0017
:101d70001004980028009000000c780009007800fa
:101d80004f04be00000006000200fa00889fbe005b
:101d9000a0ff9f0001047800380090000068a300b5
:101da00033003a00e200600005003a000003b3008f
:101db00030049800110498000080eb002e003700da
:101dc000d80490000900e00006003a00120020004c
:101dd000e680570048009000ecfa070019049800cc
:101de00023003700a80090000100e00008003a003e
:101df000719a220021049800010c78002100200033
:101e000051049800110498000030a000300498009c
:101e100018019000a800900048009000dbfa07002d
:101e2000280090008080eb0011049800aff8970024
:101e300001487800000ce8002ff89700ea4f5000a6
:101e40000b003a00380090000088a3000800320020
:101e500018019000a800900048009000cbfa0700fd
:101e60000000eb0010049800a8009000010c78001e
:101e7000aff897000100fb004f04be000080fa009d
:101e80000000060000c0da0000000600020ab900e7
:101e9000001bb9000200b80081004200810043002d
:101ea00000000600889fbe008a9fbe0030044200ea
:101eb000b0844a0030054b0090854b006000b100b3
:101ec0000898be000a90be000440e10005c8e10089
:101ed00006d0e10007d8e1000200310068004000b0
:101ee0001008e8004f05be004f04be0000000600c9
:101ef000889fbe008a9fbe003004be002005be0041
:101f00000418540005985c0006185d0007985d00f1
:101f1000110020000440e10005c8e10006d0e10006
:101f200007d8e100010039008000eb0010881000a4
:101f30004f05be004f04be00000006001200fa006c
:101f4000889fbe008a9fbe008c9fbe00e0b79f00a6
:101f5000f1b79f0082bf9f0093bf9f000605be00a0
:101f60000404be000000eb00d0b79f00c0b79f0084
:101f7000b0b79f00a0b79f0090b79f000006eb008e
:101f80005fb19700cfb09700820141003fb097004a
:101f90000200e00004003d00370007007e8057008b
:101fa000c0ff070003003700330007007e805700a2
:101fb000cfff0700dfb697000d00e0000c003500f2
:101fc0006fb29700ffb297000fbb97009fbb9700bf
:101fd00010002000010020006011b8000002720013
:101fe0008182720002037300838373001b00070069
:101ff0000c06e80001042000810f5600e0ff3a00c3
:102000000d00e00004003d000802be000a03be000f
:102010007e805700a3ff07005fa897000000e00044
:1020200005003a001fb29700afb297003fb3970088
:10203000cfb39700090007006fb09700ffb097007b
:102040000fb997009fb997004f06be004f05be001d
:102050004f04be000080fa000000060001000700e7
:1020600000000600a4b79f00b5b79f00c6b79f0049
:10207000d7b79f00000006004f09de008281710083
:10208000b3b79f004f01de00818040008280700066
:10209000a1b79f008fb097004f09de0000004000fd
:1020a0000200700090b79f007fa897004f01de00ec
:1020b000818040008280700081b79f000d00070082
:1020c0004f3ade000000400004007000f0af9f00b7
:1020d000080007000402420085824a0006034b0004
:1020e00087834b00dfff07000802be000a03be0023
:1020f000000006002fb29700bfb297004fb39700c1
:10210000dfb3970000000600881f78001800200049
:10211000881f780089ff07008f87e9004f04780047
:1021200000000600801feb0084ff07008f87e90096
:1021300000000600889fbe008a9fbe00e00f50008e
:10214000e08f5800e00f5900e08f59000c003d006f
:102150006044b8006055b8000000540081805c0005
:1021600002015d0083815d0018002000150007005a
:1021700008003d00180007000004eb0005003700d0
:102180000004eb000f00070002003d0012000700f2
:1021900018002000dcff07000800e0000600320005
:1021a0006022b8006033b8000000520081805a00fd
:1021b00002015b0083815b004f05be004f04be003f
:1021c00000000600e00f5200e08f5a00e00f5b00b5
:1021d000e08f5b00000006006044b8006055b80066
:1021e0000402540085825c0006035d0087835d0065
:1021f00000000600889fbe008a9fbe008c1f7800ea
:10220000e00f5000e08f5800e00f5900e08f5900b8
:102210000d003d006044b8006055b8000000540057
:1022200081805c0002015d0083815d001c00200054
:102230000820e10009a8e1000ab0e1000bb8e100c4
:102240000d003d00080037000006eb00e00f5200d3
:10225000e08f5a00e00f5b00e08f5b0006003d005e
:102260006044b8006055b8000402540085825c00e8
:1022700006035d0087835d00aaff07000c00e000f5
:10228000060032006022b8006033b800000052003f
:1022900081805a0002015b0083815b004f06780059
:0c22a0004f05be004f04be000000060009
:020000040000fa
:1022ac003a2600006c01000080000000802900002c
:1022bc001200000080000000541f0000000200000b
:1022cc00800000000e1100000c00000080000000d7
:1022dc00aa29000002000000820000002f0000006c
:1022ec0070280000ba000000820000000a50430071
:1022fc003a2000002a000a00616e7900206b65000c
:10230c00792e2e002e00750073652000617272000c
:10231c006f7720006b657900732074006f2070005c
:10232c006f73690074696f006e20720061737400c2
:10233c0065722e000a00720065626f006f74650092
:10234c0064206f006e20000061646400726573008d
:10235c007320650078636500707469006f6e0a0005
:10236c000073740061636b00206578006365700016
:10237c0074696f006e0a00006d617400682065005e
:10238c0078636500707469006f6e0a000064690000
:10239c0076697300696f6e002062790020300a0044
:1023ac0000726500736574007465640020627900c6
:1023bc0020617000706c690063617400696f6e005d
:1023cc000a000000a828000000b528000000c80082
:1023dc0028000000d928000000e928000000f800bf
:1023ec0028000000301100000800000082000000ee
:1023fc008603070000000000d02b000040110000f5
:10240c000600000082000000ffff3c0000ff0000ff
:10241c0000800000b04f0000800000004e11000052
:10242c00020000008200000000000000d02b000021
:10243c00205000008200000000000000000000009e
:10244c000000000000000000000000000000000080
:10245c000000000000000000000000000000000070
:10246c000000000000000000000000000000000060
:10247c000000000000000000000000000000000050
:108f1c009229000012000000820000003f20000097
:108f2c002a000a00616e7900206b6500792e2e00f4
:108f3c002e0000002c230000900100008000000097
:108f4c001a1100000c000000800000004611000007
:108f5c0004000000820000000f010100000000006e
:108f6c002a290000300000008000000026110000bb
:108f7c000a000000800000004a11000004000000fc
:108f8c00820000008000000004000000542100005a
:108f9c00d8010000820000001c00610000320000bb
:108fac006200210000630000230064000024000024
:108fbc0065002b00006600003400670000330000e1
:108fcc0068004300006900003b006a00004200009a
:108fdc006b004b00006c00003a006d00003100008b
:108fec006e004400006f00004d0070000015000082
:108ffc0071002d00007200001b007300002c00009b
:10900c0074003c00007500002a007600001d000072
:10901c00770022000078000035007900001a00006b
:10902c007a0045000030000016003100001e0000e0
:10903c00320026000033000025003400002e000012
:10904c0035003600003600003d003700003e0000c1
:10905c00380046000039000029002000004e0000b6
:10906c002d005500003d00000e006000000d0000ba
:10907c0009005400005b00005b005d00004c000028
:10908c003b004100002c000049002e00004a00006b
:10909c002f005200002700005d005c0000660000fd
:1090ac0008000d00000900005a000d0000760000b9
:1090bc001b007000003000006900310000720000dd
:1090cc0032007a00003300006b00340000730000a3
:1090dc0035007400003600006c003700007500008d
:1090ec0038007d00003900004a002f00007c000091
:1090fc002a007b00002d000079002b00005a000094
:10910c000d007100002e000005008000000600001c
:10911c0081000400008200000c00830000030000aa
:10912c0084000b000085000083008600000a00000c
:10913c00870001000088000009008a000078000008
:10914c008b000700008c000000000000000e0000e7
:10915c007e001600002100001e00400000260000ca
:10916c0023002500002400002e00250000360000fe
:10917c005e003d00002600003e002a000046000074
:10918c0028004500002900004e005f00005500003b
:10919c002b005d00007c00004c003a0000520000e7
:1091ac0022004100003c000049003e00004a000043
:1091bc003f005400007b00005b007d0000000000bd
:1091cc0000000000000000004a002f00005a0000c0
:1091dc000d007500008d000072008e00006b000009
:1091ec008f007400009000006c009100006900007a
:1091fc0092007d00009300007a0094000070000043
:10920c0095007100009600000000000000000000b6
:10921c00381100000800000080000000561100000a
:10922c00260500008200000052414d00206c6900b0
:10923c00627265003a2000002a006d006f726500b2
:10924c002e2e2e00000a4600696c65007320660005
:10925c006f756e00643a2000006c69006e653a0010
:10926c0020000a00746f6b005f6964003a200000f4
:10927c000a746f006b5f7600616c7500653a2000b4
:10928c0000756e0073706500637465006420650082
:10929c006e6420006f6620006c696e00652e000005
:1092ac0064656c0065746500200079006e00200018
:1092bc0028792f006e290000206669006c65730008
:1092cc00206465006c65740065642e000a0057000c
:1092dc0048494c00450055004e5449004c00540080
:1092ec004f00530054455000005056003136530087
:1092fc004f472000736865006c6c0a00766572003d
:10930c0073696f006e2031002e300a0000434c0050
:10931c00454152002c2063006c6561007220700086
:10932c00726f670072616d00206d65006d6f720069
:10933c00792e0a0000434f005059200066696c00da
:10934c0065206e0065775f0066696c00650a4300f6
:10935c006f70790020276600696c65002720740007
:10936c006f2027006e6577005f6669006c652700cb
:10937c000a004400454c200066696c00650a4400f4
:10938c00656c650074652000276669006c652700b4
:10939c002c206d00617920007573650020272a0050
:1093ac0027206600696c740065720a00004449004d
:1093bc0052205b0066696c00746572005d0a4c009b
:1093cc0069737400206669006c652000696e20006a
:1093dc00726f6f00742064006972650063746f00b3
:1093ec0072792c00206d6100792075007365200066
:1093fc00272a2700206669006c746500720a000039
:10940c004544490054205b0066696c0065206e0081
:10941c00616d65005d0a4c0061756e00636820002b
:10942c007465780074206500646974006f722e0096
:10943c000a004600524545000a44690073706c00ee
:10944c0061792000667265006520620079746500a0
:10945c00732069006e207000726f670072616d007e
:10946c0020737000616365002e0a000048445500ab
:10947c004d50200066696c00650a440069737000e9
:10948c006c61790020636f006e7465006e7420004f
:10949c006f662000276669006c65270020696e00e6
:1094ac002068650078616400656369006d616c001b
:1094bc000a004800454c5000205b63006f6d6d0046
:1094cc00616e64005d0a4400697370006c61790020
:1094dc00206c6900737420006f662000636f6d0050
:1094ec006d616e0064730a00576974006820610036
:1094fc00726775006d656e0074206400697370008e
:10950c006c61790020636f006d6d61006e642000ea
:10951c0068656c00702e0a00004d4f00524520000b
:10952c0066696c00650a4c006973740020636f00f7
:10953c006e7465006e7420006f6620007465780090
:10954c007420270066696c0065272000746f20006a
:10955c007363720065656e000a005200415354003b
:10956c0045520a00557469006c69740079207400c6
:10957c006f206300656e740065722000646973006f
:10958c00706c610079206f006e20540056207300bf
:10959c0063726500656e0a0000524500424f4f0031
:1095ac00540a43006f6c6400207265007374610090
:1095bc00727420006f662000636f6d00707574000c
:1095cc0065722e000a005200454e200066696c0040
:1095dc00655f6e00616d6500206e6500775f6e00e3
:1095ec00616d65000a5265006e616d006520270093
:1095fc0066696c00655f6e00616d65002720740004
:10960c006f2027006e6577005f6669006c650a0045
:10961c00005255004e207000726f670072616d0031
:10962c002e626100730a45007865630075746500ed
:10963c0020612000626173006963200070726f000a
:10964c00677261006d207300746f72006564200096
:10965c006f6e20005344200063617200642e0a0078
:10966c0000466f0072206800656c7000206f6e0001
:10967c002042410053494300207265006164200080
:10968c007573650072277300206d61006e75610043
:10969c006c2e0a00004e6f007420610020636f0076
:1096ac006d6d61006e6420006f72200042415300aa
:1096bc00494320006b657900776f7200640a0000e3
:1096cc00021200000020120000004e0012000000e8
:1096dc007a12000000b812000000de001200000038
:1096ec0009130000003e130000008b001300000063
:1096fc00bc13000000eb130000000d001400000070
:10970c0045140000008114000000a80014000000a3
:10971c00636f6d0070696c00696e670020006300f8
:10972c006f6d70006c6574006564200000666900e4
:10973c006c6520006f7065006e20650072726f00a2
:10974c00722000000004150000000f00150000003e
:10975c001a150000006e6f0020657200726f7200a7
:10976c000a006400617461002073740061636b0013
:10977c00206f750074206f00662062006f756e009c
:10978c00640a0000636f6e0074726f006c207300cb
:10979c00746163006b206f00757420006f6620008d
:1097ac00626f75006e640a00006d69007373690066
:1097bc006e67200061726700756d65006e740a003b
:1097cc0000746f006f206d0075636800206172007b
:1097dc0067756d00656e7400730a00006261640049
:1097ec002061720067756d00656e74000a0073006d
:1097fc00796e740061782000657272006f720a00d5
:10980c00006d65006d6f7200792061006c6c6f00eb
:10981c0063617400696f6e0020657200726f720074
:10982c000a006300616e27007420620065207200dc
:10983c006564650066696e0065640a00006361001a
:10984c006e277400206265002072650061737300de
:10985c0069676e0065640a0000756e0064656600d9
:10986c00696e650064206100727261007920760077
:10987c006172690061626c00650a0000636f6d00c3
:10988c006d616e0064206c00696e6500206f6e0067
:10989c006c792000646972006563740069766500f8
:1098ac000a6172007261790020696e00646578004b
:1098bc00206f750074206f0066207200616e670067
:1098cc00650a000000381500000042001500000079
:1098dc005b150000007715000000890015000000e2
:1098ec009d15000000ab15000000b900150000002c
:1098fc00d215000000e615000000fb00150000006a
:10990c0015160000000000001c1a0000ba0200002e
:10991c0080000000fc10000012000000800000001d
:10992c00bc2400007e010000820000004552520061
:10993c004f523a0020002a0000004d00656d6f0068
:10994c0072792000616c6c006f63610074696f0048
:10995c006e2e00004e6f2000534420006361720095
:10996c00642064006574650063746500642e0000f7
:10997c005061720074697400696f6e00206163003d
:10998c0063657300732e0000464154002061630030
:10999c0063657300732e0000446972006563740084
:1099ac006f7279002061630063657300732e000091
:1099bc0046696c0065206e006f742000666f750040
:1099cc006e642e00004669006c65200061636300c4
:1099dc00657373002e004600696c6500207365008a
:1099ec00656b2e00004669006c6520007265610095
:1099fc00642e000046696c00652077007269740063
:109a0c00652e000046696c0065206300726561007c
:109a1c0074652e00004669006c652000746f6f0041
:109a2c0020626900672e0000416464007265730057
:109a3c007320650078636500707469006f6e2e008a
:109a4c000030200064697600697369006f6e200035
:109a5c006578630065707400696f6e002e004400b9
:109a6c004d4120006578630070657400696f6e006d
:109a7c002e004d00617468002065780063657000ed
:109a8c0074696f006e2e000053746100636b2000cc
:109a9c006578630065707400696f6e002e0050006d
:109aac00532f3200206b650079626f006172640085
:109abc00206e6f007420640065746500637465002b
:109acc00642e0000c624000000c724000000da0049
:109adc0024000000ef2400000001250000000d0010
:109aec00250000001f250000002f250000003c0071
:109afc0025000000472500000052250000005e00f4
:109b0c00250000006b2500000079250000008c006a
:109b1c0025000000a225000000b125000000c100b6
:109b2c0025000000d22500000000000050110000ac
:109b3c000200000080000000d61c00007e02000025
:109b4c008200000066696c00652075006e73610010
:109b5c0076656400212063006f6e7400696e750079
:109b6c0065202800792f6e00293f00006c6f610082
:109b7c0064696e0067206600696c65002e2e2e00ed
:109b8c000a002000627974006573000066696c003d
:109b9c00652563003a202500732c200073697a0038
:109bac00653a2000256400006e6f20006e616d0028
:109bbc00652563002c207300697a65003a20250026
:109bcc006400550053414700453a2000746172000f
:109bdc0067657400205b2d00495d20005b2d4c00f7
:109bec005d0a00003f200000676f74006f206c005e
:109bfc00696e65003a20000066696c0065206e0095
:109c0c00616d65003f2000006f7065006e2066007e
:109c1c00696c65000a007300617669006e6720004c
:109c2c0066696c00652e2e002e0a00002073610000
:109c3c00766564002c207300697a65003a20000078
:109c4c003c435400524c2d0044454c003e206400d3
:109c5c00656c650074652000746f2000656e64008f
:109c6c00206f6600206c69006e650a00003c4300a2
:109c7c0054524c002d413e0020736100766520004b
:109c8c0061730a00003c430054524c002d454e00b9
:109c9c00443e200066696c00652065006e640a0015
:109cac00003c430054524c002d463e00206c690091
:109cbc007374200053446300617264002066690071
:109ccc006c6573000a003c00435452004c2d470055
:109cdc003e2067006f746f00206c69006e652e006b
:109cec002e2e0a00003c430054524c002d483e00de
:109cfc002064690073706c0061792000686f7400d7
:109d0c006b657900730a00003c435400524c2d00e3
:109d1c00484f4d00453e200066696c00652073007d
:109d2c0074617200740a00003c435400524c5f0092
:109d3c004c454600543e2000776f720064206c0046
:109d4c00656674000a003c00435452004c2d4e00d2
:109d5c003e206e006577200066696c00652e2e0033
:109d6c002e0a00003c435400524c2d004f3e200064
:109d7c006f7065006e206600696c65002e2e2e00db
:109d8c000a003c00435452004c2d51003e2051001f
:109d9c00756974002065640069746f00720a0000b4
:109dac003c435400524c2d005249470048543e004d
:109dbc0020776f00726420007269670068740a0073
:109dcc00003c430054524c002d533e002073610064
:109ddc007665200066696c00650a00003c4631001f
:109dec003e206600696c6500206e61006d65200088
:109dfc00616e6400207369007a650a003c4633008a
:109e0c003e20730065742000736561007263680006
:109e1c00206372006974650072696f006e0a00003d
:109e2c003c534800494654002d4633003e207300f5
:109e3c0065617200636820006e657800740a00002a
:109e4c0000931d000000b5001d000000c71d0000a0
:109e5c0000dc1d000000f8001d0000000f1e0000bb
:109e6c0000291e00000041001e000000581e0000ca
:109e7c00006e1e00000085001e0000009b1e0000ee
:109e8c0000b41e000000c8001e000000fb1e0000f5
:109e9c0000131f00000000007c160000a00300004f
:109eac008000000052110000020000008000000041
:109ebc0000100000fc0000008000000054110000a5
:109ecc00020000008200000000000000a627000035
:109edc00ca000000820000003031320033343500fb
:109eec0036373800394142004344450046003000c3
:109efc003132330034353600373839006162630053
:109f0c006465660000286e00756c6c00290000000a
:109f1c00010000000000000000000a00000000002a
:109f2c0000000000006400000000000000000000c1
:109f3c00e8030000000000000000100027000000f3
:109f4c000000000000a086000100000000000000de
:109f5c0040420f00000000000000800096980000b6
:109f6c00000000000000e100f5050000000000000a
:109f7c0000ca9a003b00000000000000e40b5400f3
:109f8c00020000000000e800764817000000000006
:109f9c000010a500d4e8000000000000a0724e00e4
:109fac0018090000000040007a10f3005a0000006d
:109fbc000080c600a47e8d000300000000c16f006d
:109fcc00f2862300000000008a5d780045630100e2
:109fdc0000006400a7b3b600e00d000000e88900a3
:109fec000423c7008a0000005a2900002600000044
:109ffc0082000000a529000000a52900090000002e
:10a00c0000020000a729000000a729000e02010091
:10a01c00000000000000000000000000060202002a
:10a02c00000000005a290000a429000006000000ce
:10a03c0080000000ac29000002000000820000003b
:08a04c0001000000000000000b
:020000040000fa
:10a05400c5d0bf000000fb00000040004108210003
:10a06400008040001001780002007800c810b4009d
:10a0740080017800cad0ed0082495000c5d0bf00ed
:10a084000000fb0000004000808040009100780048
:10a0940001007800c810b400800178005286800066
:10a0a4000281e90081005100c808de009141980056
:10a0b400c570ed00000006005031ec00c550ec0006
:10a0c400c5f0b7000000fb0000004000410821007b
:10a0d40000804000518680000108780000000600de
:10a0e4000000060000000600000006000000060054
:10a0f400c5f0ef00ca30ef00fc30ef00fe30ef0097
:10a104000071ef005031ef0040868000128880001b
:10a1140082004000318688008000eb00fcda0700f2
:10a124000c31ef000671ef000771ef000831ef000a
:10a1340000000600753a070060152100be2c0700d8
:10a1440050868000c810b400c610b500cf80de0071
:10a154000001eb00d32c07000000060020888000db
:10a16400e04092000104e00003003a00fe3d0700d5
:10a17400ea4f5000f9ff3a0000000600881f7800fb
:10a1840008c2b30020888000f73d0700884f5000c4
:10a19400fcff320020888000e04092000104e000cf
:10a1a40001003a000c3e07004f047800000006004e
:10a1b400889fbe008a9fbe008c9fbe00efff0700f1
:10a1c40020888000e04092000104e00028003a006a
:10a1d400bbb421000005eb00acc2b300fdc5b30065
:10a1e4000800370009007800e0d90700806d780086
:10a1f4000a05e80020888000e04092000104e000a5
:10a204000e003a00d83d0700004478008804fb00a3
:10a214000900780090d907000000e000f1ff3a003f
:10a224008c4f5400efff32008d4f5400edff32008d
:10a23400e0c2b300804f5400eaff3200208880005f
:10a24400e53d0700c0b421000a0040000048eb00cf
:10a254000a00e00003003a00a0b421000008eb006b
:10a26400070037005000200050da8800040037004f
:10a27400d93d0700c0b421000048eb00f6ff3700c9
:10a284004f06be004f05be004f04be00000006008e
:10a294002800fa00881f7800010478004200dd00dd
:10a2a400c1522100008040001001be0060fd2f005b
:10a2b4000f004000772e070060fd2f000f004000c4
:10a2c4005d2c0700080078005b2c07000f3a07009c
:10a2d4004f0478000080fa00000006008000fa00b5
:10a2e4004200dd00814c2100008040001001be00ce
:10a2f40000f82f000f004000662e070000f82f0022
:10a304000f0040004c2c07000080fa0000000600fb
:10a31400881f7800000478001000200010049800c2
:10a32400a3ff070050da80000000e00002003a00ba
:10a33400100498002900370061da8000a002200090
:10a34400808f500025003200c1b42100914f1000cd
:10a3540004003a00180090000000e800100498007f
:10a36400020037004000200010049800c0b421000f
:10a3740085da07000001e900b1b4210001004000c2
:10a38400a1c2b30090cf100006003a00c0b421006f
:10a39400020140000049eb00180090000000e800b2
:10a3a4001004980018009000e20f50000b003900d0
:10a3b400e30f500006003600e50f500007003e0092
:10a3c400c1b421001800780069da070003003700df
:10a3d400d1b421001800780065da07004f04780032
:10a3e40000000600889fbe008a9fbe00800578009a
:10a3f400bb04900050868000c810b40009045000cb
:10a404000808a300010032000804e8003086800038
:10a414000805500008017800890078000a007800d7
:10a4240029da07003a868800408680008084540038
:10a434005986880009004000080178008000eb007c
:10a4440033da0700ba0598004f05be004f04be007a
:10a45400000006001f1807000000fe0000000600b0
:10a464002000fa00889fbe008a1f7800000478004c
:10a47400a0fd2f000f0040003dda0700a0fd2f00d3
:10a484000f004000442e070098009000e28f500017
:10a494001e00320010c0b3003a003900e48f5000af
:10a4a400050032002f0039000040eb00e58f50001a
:10a4b40034003a0009003700a1fd2f008f804000ce
:10a4c4001800780023da070000f0a7000000ea0073
:10a4d4000000e9004f00de002a00370098007800f1
:10a4e400a0fd2f000f0040005bda0700a1fd2f0044
:10a4f4008f8040000080680000f0a7000000ea00a0
:10a504000000e9004f00de001e0037001804780048
:10a5140088007800a0fd2f000f0040004eda0700ed
:10a5240000057800a0fd2f000f00400016da070098
:10a53400800478000800780013da0700808454004f
:10a54400a0fd2f000f0040008904400009056d00a4
:10a554000af0a7000a05ea000a00e9004f00de003d
:10a564000800370098007800a0fd2f000f0040007d
:10a5740039da070000f0a7000000ea000000ea0052
:10a584004f00de004f0578004f04be000080fa0043
:10a5940000000600889fbe008a9fbe008c9fbe00fc
:10a5a4008e1f78000004be00c0b42100f6d9070055
:10a5b40080057800920180000800d0004000b000bf
:10a5c4004220a800e0804c004220ae004200a800d7
:10a5d4000080d3008101780093018800000000000e
:10a5e4001040780092018800000000000085eb0014
:10a5f4000004e000550032000806be000005eb0030
:10a60400ceb421007f0060008b0f500019003a0087
:10a61400940180000c00d0008000b0004220a8000b
:10a62400e0804e004220ae004200a8000080d3002b
:10a6340000f0a6008100e800010178009201880082
:10a6440000000000100178000080e80002003900da
:10a6540000f0a0003220ec00900178009401880002
:10a66400000000000e007800a92d07000000e000a3
:10a67400250032000a05e8006150b900430edd00f0
:10a68400cd06de008d0676004306dd008c8fd200f9
:10a694008d86d2000c0678000cf0a1000800d000d2
:10a6a4008c00d000010640004220a8008d864c009a
:10a6b4004200a9004220ae004200a8000c86d3004c
:10a6c400920180000c00d0004000b0004220a8009d
:10a6d400e0804e004220ae004200a8000080d3007b
:10a6e4008101780093018800000000001040780088
:10a6f40092018800000000000004e000c1ff3a005d
:10a704000085eb0011003700910180000c06d00099
:10a714004c00b0004220a800e0864e004220ae006b
:10a724004200a8000c86d3000d0078009001880038
:10a73400000000001c407800910188000000000027
:10a744000004e00001003a000085eb000a007800f4
:10a754004f0778004f06be004f05be004f04be00f1
:10a7640000000600889fbe008a9fbe008c9fbe002a
:10a774008e1f7800dbb4210029002000ddcdb3005a
:10a78400fec5b3001c003700773c07000044780086
:10a794000805fb000a0078002fd807000000e0003d
:10a7a4000c003a008e4f5400340032008c047800c0
:10a7b40040c2b300804f5400340032000040e9002e
:10a7c400804f54003100320020888000823c070012
:10a7d4000e0037000a00780064d80700804d780026
:10a7e400090678000d444400e14f54000700360088
:10a7f4008904e8008b05e8000906e9002088800048
:10a80400e04092000104e000dfff3200000220007b
:10a81400800f56000100340000067800c0b4210007
:10a824000c064000004eeb00e0e02c00112020005c
:10a8340058ff07000000e00004003500710120000b
:10a8440051da880060da88001700370000632b00b3
:10a85400112020004fff07000000e0000400350035
:10a864008101200051da880060da88000e00370088
:10a874003000200050da88000b0037000a0078000e
:10a884003ad80700804d7800d9ff37000a007800d5
:10a8940036d80700c1b42100898040008048780080
:10a8a4000906e800d9ff37004f0778004f06be00bd
:10a8b4004f05be004f04be00000006005600fa001b
:10a8c400889fbe008a9fbe0040fd2f000f004000fd
:10a8d400a0bf9f0010002000b0bf9f006c805700f5
:10a8e4008bfe07003fb897000000e00002003a002a
:10a8f40010002000b0bf9f00a03907000005eb0046
:10a904008004eb00250037002fc097007c00600016
:10a9140024003a0021fa2f008f8040006c805700f9
:10a92400cffe07000004e0001e00320020fa2f00d2
:10a934000f004000c02a07006e380700f34f500094
:10a9440004003e00653807008040780040c1b30031
:10a954009c2a07000b0178004fa09700dfa0970006
:10a96400d02a07000804e80068380700f40f5400f0
:10a974000c003a0021162100401621008a2b070002
:10a98400fb4f50000c003200543807008040e900af
:10a994000040eb008b2a07004a01200009047800dc
:10a9a4008b00200020fa2f000f00400031390700ef
:10a9b4000000e000d4ff3200c01621009e2a0700e8
:10a9c40008004500cf80de000001eb00b52a070037
:10a9d4004f05be004f04be000080fa0000000600d0
:10a9e4004000fa00889fbe00800478002088800020
:10a9f40021002000908f100001003a00b5160700d6
:10aa0400423807002088800024002000900f1200a4
:10aa140007003a00b0172100872a070060888000e9
:10aa24008000eb000001eb009e2a07003738070086
:10aa34004248dd00c1642100008040001001be00d6
:10aa4400c0fb2f000f004000922c0700c0fb2f001a
:10aa54000f004000782a070020182100762a0700fa
:10aa6400a8b42100180078008000eb000001eb007e
:10aa74008c2a0700c01821006f2a070018007800ec
:10aa8400e40f50005700320005003e00e10f500073
:10aa940059003200e30f50005d003a0059003700be
:10aaa400f70f500005003200f80f50002800320064
:10aab400e50f500056003a005200370060da80007b
:10aac4004300dd00640040006100b900e2e02c00b6
:10aad400132020008202d0000002d0000481420032
:10aae4004220a800818149004200a9004220ae0012
:10aaf4004200a8000281d3009101800002f0a60068
:10ab04008301e80003007800900188000000000041
:10ab140002007800100178000080e800020039008b
:10ab240000f0a0003220ec00900178009101880030
:10ab340000000000c0fb2f000f004000552c070050
:10ab4400c0fb2f000f0040003b2a070035003700f0
:10ab540060da80004300dd00640040006100b90059
:10ab640002632b00132020008202d0000002d000d8
:10ab7400048142004220a800818149004200a900ca
:10ab84004220ae004200a8000281d300910180005f
:10ab940002f0a6008301e800030078009001880019
:10aba4000000000002007800100178000080e80036
:10abb4000200390000f0a0003220ec00900178007f
:10abc4009101880000000000c0fb2f000f0040002e
:10abd400302c0700c0fb2f000f004000162a07008e
:10abe4001000370060da8000cf80de000001eb0047
:10abf4002c2a07000b003700901921000e2a0700a9
:10ac040008003700c0b421000b2a070005003700f4
:10ac1400c0b42100f5c1b30090cf1200010034008c
:10ac2400052a0700b937070011c0b3002088800047
:10ac340061409a008900780060b221002cd7070097
:10ac4400881f7800000478000808a300010032007f
:10ac54000804e80030868000080450005086800014
:10ac6400c810b400800f540002003e0070002000a1
:10ac74005bff070038868800080078004f047800de
:10ac8400000006006000200055ff070000000600d9
:10ac9400889fbe008a9fbe008c1f78000005780044
:10aca40020888000303b070028888000e84092001c
:10acb4008004eb000104e00022003a005c00200064
:10acc4008000fb000103b100e98f500006003e0044
:10acd400010478008a0f5400120035000c0078003b
:10ace4003fff07000f003700f00f55000a003a003d
:10acf4008005fb000b007800efd607000000e000a1
:10ad0400050032000b00780018d7070098fc2f00cc
:10ad14000004440003003700080078002e3b0700bd
:10ad2400080037008ac8b9008004440020888000e5
:10ad34000d3b070028888000e84092000104e000f1
:10ad4400dfff32004000200050da880069da880012
:10ad54004f0678004f05be004f04be0000000600f9
:10ad6400889fbe008a9fbe008c1f780020888000c8
:10ad7400fd3a070021888000e14092000104e000d0
:10ad84005d003a000004e0005d0034008004eb0044
:10ad94000045eb002bc7b300ccb421000a04e0004b
:10ada4000f003a0018c0b30021c2b300814f500015
:10adb40032003200c1c5b300814f500003003a0095
:10adc400084578000044eb002c0037008900460059
:10add400804878008904e8000044eb00270037002d
:10ade4008b4f50001a00320007003c0021c2b30010
:10adf400814f500008003200e1c6b300814f50007b
:10ae04001a003a001200370041c7b300814f5000c6
:10ae140016003a00070037000900460021c2b300bb
:10ae2400014878008904e8000045eb000a447800f2
:10ae3400120037000900460091c0b30001487800b1
:10ae44008904e8000045eb000a4478000b00370051
:10ae540009004600a1c0b300014878008904e80055
:10ae64000045eb000a44780004003700600020002d
:10ae7400dbfe07000045eb000a44780020888000d0
:10ae8400b93a070021888000614192000204e00081
:10ae940005003a000804e00013003a000004e00052
:10aea400beff3c0017003700c0b4210089044000f5
:10aeb400804ceb000804e00003003200010078003d
:10aec400c53a07000200370060002000c4fe0700f6
:10aed4005000200050da88004f0678004f05be006d
:10aee4004f04be0000000600c0b4210089044000e5
:10aef400804ceb00f1ff37008004eb0001003700c9
:10af04008004eb00c0b4210089044000804ceb00b5
:10af1400edff3700889fbe000a51e20002003200b4
:10af24000a71ef00370137000000eb0050da8800a7
:10af3400c1b42100804878002088800060409200dd
:10af44000004e0002f013a008cfc070020888000f8
:10af5400853a070000447800e14f440002003a00bb
:10af6400a0b421000008eb008804fb00090078006d
:10af740047d607000000e000060032000900780010
:10af84007ad60700c1b4210080487800f5fd070097
:10af94001c0137000800fb000003b100e90f50005a
:10afa40005003e00208880008b3a0700a0002000a6
:10afb40037ff0700130137000804fb00cfc4de008d
:10afc4006a045400e0845c0020052000800f5400d3
:10afd400e08f5c000b013e00080601000101370010
:10afe4000801370007013700fe003700050137006c
:10aff4000401370003013700020137000101370063
:10b0040000013700ff003700fe003700fd00370065
:10b01400fc003700fb003700fa003700f900370066
:10b02400f8003700f7003700f6003700f500370066
:10b03400f4003700f3003700f20037004c0037000b
:10b044003c003700380037006b003700ed00370054
:10b054003b003700b9003700c00037005600370006
:10b0640045003700c50037004b003700e5003700c6
:10b0740059003700e3003700e2003700e1003700f1
:10b08400e0003700df003700de003700dd00370066
:10b09400dc003700db003700da003700d20037006d
:10b0a400be003700840037005b00370062003700c1
:10b0b400c2003700c6003700d2003700d100370085
:10b0c400d0003700cf003700ce003700cd00370066
:10b0d400cc003700cb003700ca003700c900370066
:10b0e400c8003700c7003700c6003700c500370066
:10b0f400c4003700c3003700c2003700c100370066
:10b10400c0003700bf003700be003700bd00370065
:10b11400bc003700bb003700ba003700b900370065
:10b12400b80037000b00370000012000d8fe0700ec
:10b13400b400370020002000d5fe0700b10037001e
:10b144008001200050da88006e00400060da880038
:10b15400ac0037009001200050da8800208880007d
:10b16400013a07000000fb0060da8800a500370000
:10b17400fbfe0700a30037006000200050da8800bf
:10b18400b1c2b300c0b42100014878000000e80057
:10b194000048eb009b0037007000200050da880064
:10b1a400d1c2b300c0b42100014878000000e80017
:10b1b4000048eb00930037008000200050da88003c
:10b1c400a1c2b300c0b42100014878000000e80027
:10b1d4000048eb008b0037009000200050da880014
:10b1e400f1c2b300c0b42100014878000000e800b7
:10b1f4000048eb0083003700a000200050da8800ec
:10b2040051c2b300c0b42100014878000000e80036
:10b214000048eb007b003700f000200050da880083
:10b22400d1c3b300c0b42100014878000000e80095
:10b234000048eb0073003700e1c3b300c0b4210041
:10b244000148780020888000c7390700d1c3b300c3
:10b25400814f500007003a002001200050da880096
:10b26400d0b42100014878000000e8000048eb0059
:10b2740064003700c1c3b300814f500007003a0097
:10b284000001200050da8800d0b421000148780081
:10b294000000e8000048eb005a00370010012000cd
:10b2a40050da8800d0b421000048eb0020888000e8
:10b2b400c939070053003700c1c3b300c0b421002b
:10b2c4000148780020888000a7390700d1c3b30063
:10b2d400814f500007003a004001200050da8800f6
:10b2e400d0b42100014878000000e8000048eb00d9
:10b2f40044003700e1c3b300814f500008003a0016
:10b304000001200050da880081c0e900d0b4210097
:10b31400014878000000e8000048eb0039003700dd
:10b324003001200050da8800d0b421000048eb003e
:10b3340020888000a839070032003700c0002000b0
:10b3440050da880081c2b300c0b4210001487800fb
:10b354000000e8000048eb002a003700d00020007d
:10b3640050da880091c2b300c0b4210001487800cb
:10b374000000e8000048eb0022003700b000200085
:10b3840050da8800c1c2b300c0b42100014878007b
:10b394000000e8000048eb001a003700e00020003d
:10b3a40050da8800b1c3b300c0b42100014878006a
:10b3b4000000e8000048eb00120037008001200084
:10b3c40050da88006800400060da88000d00370019
:10b3d4008001200050da88006d00400060da8800a7
:10b3e400080037000c31ec001000200050da88000f
:10b3f400a1c0b300c0b42100014878000000e800f7
:10b404000048eb004f04be0000000600c1fe070028
:10b41400a0b4210010007800ef00500010c0b30069
:10b42400e58f5000020036000af1b7000040eb003f
:10b4340000000600b7fe0700a0b421001000780049
:10b44400e800500010c0b300e28f50000200360044
:10b454000af1b7000040eb0000000600adfe070053
:10b46400a0b4210010007800e600500010c0b30022
:10b47400e18f5000020036000af1b7000040eb00f3
:10b4840000000600a3fe070050da8000f80f500009
:10b4940008003a0061da800010c0b300fc8f50004d
:10b4a40007003200e18f500005003200fe8f50008b
:10b4b4000300320010c0b3000af1b7000040eb00f3
:10b4c4000000060093fe070010c0b30051da8000ac
:10b4d400e58f5000020032000af1b7000040eb0093
:10b4e400000006002000fa00889fbe008a9fbe006c
:10b4f4008c1f780087fe070050da8000e10f5000af
:10b504003d003a002f0037000804e00025003d000c
:10b51400783507000080fb007f0464000884540031
:10b52400880f500002003400a0c0b3005a2707005f
:10b53400940180000a00d0004000b0004220a8001e
:10b54400e0804d004220ae004200a8000080d300fd
:10b5540000f0a6008100e800010178009201880053
:10b5640000000000100178000080e80002003900ab
:10b5740000f0a0003220ec009001780094018800d3
:10b584000000000060fd2f000f004000c1290700eb
:10b5940060fd2f000f004000a72707000c40780033
:10b5a4003d2707000a05d0000a01b0004220a80088
:10b5b400e0854d004220ae004200a8000a85d30079
:10b5c400040037000ae12c001b202000690220003f
:10b5d4000cc2b300900180009b01880000000000b1
:10b5e4001a44780090018800000000000804e0007c
:10b5f400c5ff3a000c003700f70f500003003a0073
:10b6040060da800035fb070007003700f80f5000b0
:10b6140003003a00d000200030fb0700020037008e
:10b62400e00020002dfb07004f0678004f05be0008
:10b634004f04be000080fa0000000600881f780056
:10b644000004780033fe070050da8000880f5000b1
:10b654000200320060002000e1fc07004f04780083
:10b6640000000600889fbe008a9fbe008c9fbe001b
:10b674005031ec00b00590009b067800c00020001b
:10b68400eeff070023fe07000005eb001800200072
:10b69400a9b421001c00200026003700e50f50004b
:10b6a4000900320003003e00e10f50001c003a0084
:10b6b4001f003700eb0f500015003200ed0f500053
:10b6c40017003a001e0037000a00e00002003200b2
:10b6d40060002000c2fc0700c0b42100aad5070006
:10b6e4000000e80056fd070000057800c1b4210001
:10b6f4000a0078009ed50700080044000080450039
:10b704000a0878000804e8000c05780008003700ef
:10b714000a00e00005003a000804e80004003700cd
:10b7240060002000aefc0700010037000005eb00bc
:10b73400f8fd070019007800ed0f5000d7ff3a001c
:10b74400888f56000200360030002000a4fc070059
:10b754008d06e8008d0f54000200360040002000e2
:10b764009ffc07005031ed004f06be004f05be00a0
:10b774004f04be0000000600e4874700889fbe0017
:10b784008a9fbe008c9fbe008e1f780080057800c3
:10b794003b409000e24f500005003a003b0090000f
:10b7a40080bf9f00100778000006eb0004003700fc
:10b7b4003b0690001c87fb008000eb0081bf9f00cc
:10b7c400c00020009dff0700d2fd07000005eb002c
:10b7d40019002000a8b421008886e8002900370059
:10b7e400eb0f50001d00320005003e00e10f500039
:10b7f40023003200e40f50001d003a00040037001b
:10b80400ed0f500022003200f90f500018003a00ea
:10b814000a00e000020032006000200070fc070013
:10b824003b409000e24f500007003a00098044007a
:10b834008fb89700008040001d0878008904e80054
:10b844001a0020000e003700090046001d48780049
:10b854008904e8001a002000090037000a00e0000b
:10b8640006003a00600020005dfc07000400370079
:10b87400600020005afc0700010037000005eb00bf
:10b88400a4fd070018007800ed0f5000d4ff3a0023
:10b89400890f5700020034003000200050fc0700dc
:10b8a4000e07e800890f570002003d004000200009
:10b8b4004bfc07004f0778004f06be004f05be0043
:10b8c4004f04be004f00b10000000600889fbe0078
:10b8d4008a9fbe008c9fbe00800478004000200038
:10b8e40056ff070068da8000d000200053ff0700ed
:10b8f4000900780024d50700000578008a0678003e
:10b904000800e00002003c006000200034fc070056
:10b914000a05e9008a85440030c2b3009b4f100039
:10b924000a003a000806e8000c007800c4fc07008e
:10b93400000578000c0178008000eb000a00780014
:10b94400f3d40700084d78000a0037000806e80021
:10b954000c0646000c007800b9fc070000057800ce
:10b964000c0178008000eb000a007800e8d407009e
:10b97400080d780080002000b1fc07000004780066
:10b984000d00e800aefc0700200498008900780050
:10b99400f7d407003a0498001b40780041c2b30072
:10b9a400814f500003003a0040c0b3003044980077
:10b9b4000800370031c2b300814f500003003a0041
:10b9c40030c0b300304498000200370020c0b300f8
:10b9d40030449800e0878000000c7800e8878800f5
:10b9e4004cfd070050da8000ef0f500009003a00c8
:10b9f40038409000e44f500003003a0008007800fb
:10ba040018ff070005003700080078005aff0700f8
:10ba14000200370010c0b3000af1b7004f06be00a1
:10ba24004f05be004f04be000000060039fd0700ac
:10ba340050da8000e20f500002003600400020007f
:10ba4400e7fb0700000006002000fa00d8f9070011
:10ba540050da80000000e00002003a0030002000cc
:10ba6400dffb0700a1022000c0b42100afd407000f
:10ba74000000e0000200320050002000d8fb070064
:10ba8400c1b4210000fe2f000f004000b8d407000d
:10ba9400c7f9070050da80000000e00002003a0015
:10baa40030002000cefb0700a1022000c0b421001a
:10bab4009ed407000000e000020032005000200085
:10bac400c7fb0700c1b4210000fe2f000f00400097
:10bad4005b350700d5ff07000080fa000000060070
:10bae400af02b000889fbe008a9fbe008c9fbe003c
:10baf4008e1f780005340700adf9070050da800086
:10bb04000000e00002003a0030002000b4fb07000f
:10bb1400a1022000c0b4210084d407000000e0008a
:10bb24000200320050002000adfb0700c0b4210029
:10bb340054340700800578000b00e0004c0032000c
:10bb4400c83307008046eb000eceb300390037003f
:10bb54005a407800ea4f500005003200ed4f500083
:10bb64001d003200e94f500013003a000300370073
:10bb7400a0c0b300c82507001700370000c2b300f7
:10bb8400c52507000cc2b30007003700d9330700ee
:10bb94000004e00002003a008d46e8000e00370081
:10bba4000c407800bc250700d233070063406000d6
:10bbb400f6ff3a00080037008e40400042c6b3004a
:10bbc40082cf500002003e00b32507000200370078
:10bbd40000c2b300b0250700c63307000004e0002c
:10bbe40001003a008d46e800f3cf56000e003a00fb
:10bbf40041c1b3000040eb00f225070021162100eb
:10bc040040162100e8260700fb4f500015003200c3
:10bc140040012000f925070031c1b3000040eb00ca
:10bc2400e82507008046eb008904e800890f5400ea
:10bc3400c7ff3e0082022000a1fc2f008f8040003d
:10bc44000b00780047340700000478000800e00087
:10bc5400040032009afc2f000f0545008004eb001d
:10bc6400bbff37000b0078001212070002003700f8
:10bc7400b23307002c3907006cff07004f07780028
:10bc84004f06be004f05be004f04be00af02b10018
:10bc940000000600cf04b000889fbe008a9fbe004b
:10bca4008c9fbe008e1f78009833070040f9070070
:10bcb40050da80000000e00002003a00300020006a
:10bcc40047fb0700a1022000c0b4210017d40700dd
:10bcd4000000e000020032005000200040fb07009a
:10bce400c0b42100e7330700000778000e00e0002d
:10bcf4004d0032000040eb0080ef9f0080f79f0072
:10bd0400004678008006eb008004eb000bceb30005
:10bd14000204200081fa2f008f8040000e0078007a
:10bd240010340700000578000a00e0000d003a0016
:10bd340001c0b300f884540081f77c0008c2b3004a
:10bd440002003700084078005325070069330700d4
:10bd5400ff4f5000fbff360078805700b6250700e0
:10bd64002e0037000004eb006700640015003a0061
:10bd740000c2b3004825070078805700ae250700ad
:10bd8400623307000c46e800f44f560006003a0000
:10bd9400211621004016210083260700fb4f500086
:10bda4001e0032000046eb00410020000d00780028
:10bdb4000126070000c2b30037250700e8864600c5
:10bdc4008004eb0082fa2f00080141006f407900e3
:10bdd4000b414000f1c5b300814f510004003e0007
:10bde400f880540080f778008904e80004003700e4
:10bdf40003c2b300f880540083f778008904e80094
:10be04000080fb0021002000eb2507000804e80067
:10be1400880f5500d4ff3e00bdff37000e007800a8
:10be2400a41107000200370044330700be3807009e
:10be3400fefe07004f0778004f06be004f05be0008
:10be44004f04be00cf04b10000000600d8f807007c
:10be540050da80000000e00002003a006e20070083
:10be64000b003700e50f500009003a00a102200042
:10be7400c0b42100add307000000e000020032008e
:10be840050002000d6fa0700c0b421006220070049
:10be9400e6fe0700000006005600fa00889fbe0078
:10bea400c0fd2f000f004000c0af9f0080fd2f0099
:10beb4000f00400016f907005fa897000000e0009b
:10bec40002003a0030002000c5fa07002b340700b6
:10bed4000004eb0099c5b300230037006fc097003e
:10bee4007c00600020003a0061fa2f008f8040003f
:10bef40080fd2f000f00400059f907000004e00006
:10bf040019003200001b21004b25070060fa2f00a6
:10bf14000f00400048250700811b2100b01b2100b1
:10bf2400212607000000fb0090d20700fb4f5000c1
:10bf340012003200894f50000b003a0060fa2f00c3
:10bf44000f00400055340700fc3207000000e000f9
:10bf540003003a000804e800ec320700020037004e
:10bf6400713807000500370060fa2f000f00400009
:10bf7400c03307000000e000d8ff32006140b90080
:10bf84000001eb0047250700201c21002a2507009b
:10bf9400a6fe07004f04be000080fa000000060061
:10bfa4006000fa00889fbe008a1f780080f80700ae
:10bfb40050da80000000e00002003a003000200067
:10bfc40087fa0700a1022000c0b4210057d307005c
:10bfd4000000e000020032005000200080fa070058
:10bfe400c1b42100a0fd2f000f00400060d3070062
:10bff4006ff8070050da80000000e00002003a0009
:10c004003000200076fa0700a1022000c0b421000d
:10c0140046d307000000e000020032005000200078
:10c024006ffa0700a0fd2f000f0040001533070032
:10c03400000478000800e0001c003200c0b42100b5
:10c04400963307000000e00018003a00c0b4210055
:10c054000c330700800478000900e000130032006c
:10c064000a0420000a017800a1f92f008f80400003
:10c07400080078003b3307000000e00006003200af
:10c0840000017800a1f92f008f804000090078009a
:10c094003b330700f3ff3700080078000511070061
:10c0a400090078000311070002003700a3320700db
:10c0b4001d3807005dfe07004f0578004f04be00e1
:10c0c4000080fa0000000600881f78000044780011
:10c0d40050868000c810b400c610e30002003e0081
:10c0e400700020003efa07005186800001007800ad
:10c0f400c810b40000017800084978008100e80005
:10c10400518688004f0478000000060020c3b30065
:10c11400edff07005186800001007800c810b400cc
:10c1240000027800e3cfb30081c15100520c21001a
:10c13400124178000201fb000201e9000201410002
:10c14400410821000281400012ca41005286800049
:10c1540002007800c810b40000027800e3ff2f004a
:10c1640002815100530c2100934178008301fb00ac
:10c174008301e90083814100838040001101410073
:10c184004811de0012429800cab0ec00b0f7070074
:10c19400c570ed005031ed0000000600c000200025
:10c1a40026fd0700d000200024fd070060c1b30075
:10c1b400c5ff070000000600c00020001ffd0700a7
:10c1c400d00020001dfd0700e0c0b300beff070043
:10c1d4000000060030c3b300bbff0700c550ec00ed
:10c1e400c5f0b7000000fb0000004000410821003a
:10c1f4000080400051868000010878000040eb0078
:10c20400b1ff07000040eb00afff0700000006008d
:10c21400c000200009fd0700d000200007fd070032
:10c2240080c0b300a8ff070000000600c000200083
:10c2340002fd0700d000200000fd070040c4b30049
:10c24400a1ff070000000600c0002000fbfc07005f
:10c25400d0002000f9fc070050c5b3009aff070086
:10c2640000000600881f7800e0c1b30096ff0700b5
:10c2740030c3b30094ff0700c550ec00c5f0b7000d
:10c284000000fb00480821000000400000004400ba
:10c2940051868000010878000040eb008aff070007
:10c2a4000040eb0088ff070010c0b30086ff0700c2
:10c2b40020c3b30084ff07000040eb0082ff0700a7
:10c2c4000040eb0080ff070061f70700c550ec0059
:10c2d400c5f0b7000000fb0000004000000444006b
:10c2e40050868000008ce9004f04780000000600ae
:10c2f40020c3b30074ff07000040eb0072ff070087
:10c304000040eb0070ff070051f70700c550ec0038
:10c31400c5f0b7000000fb00000040004108210008
:10c3240000804000518680000188e900000006007a
:10c33400881f7800f7fa070050da8000e40f5000f5
:10c3440008003a0068da8000d0c1b3005eff07003d
:10c35400084078005cff070020c1b3005aff0700c3
:10c364000200370010c0b3000af1b70000c1b300e7
:10c3740055ff07004f047800000006000040eb0062
:10c3840051ff070000000600881f7800800120008c
:10c39400aafc070068da8000c5d0bf000000fb00db
:10c3a4000000e90000004000410821000080400036
:10c3b400900f1400020032006000200088f907008a
:10c3c400f20f54000b00320003003c00f00f540045
:10c3d40047003a0020003700e0022000800f54009c
:10c3e4000700320069004000800f540040003a000a
:10c3f4001d00370016f70700c570ed003e0037003a
:10c40400c5d0bf008000fb008180400042082100ad
:10c4140081004100110478000040e900c5f0b70034
:10c424000800e00004003a00600020006cf90700f6
:10c43400c570ed00050037000040e900c5f0b70005
:10c4440003f707000804e900fdff3a0010c0b30039
:10c454001dff070028003700e0c3b3001aff0700e0
:10c464000040eb0018ff070060c3b30016ff07008d
:10c47400e0878000fe10e3000300360030009000e7
:10c4840011ff0700020037000040eb000eff070019
:10c49400fe10f800fc10f900fe30ef000071ef0010
:10c4a400520c2100124178000200fb000000400001
:10c4b4004108210000804000100078000241e9009a
:10c4c400530c2100824978000201fb000201e900bb
:10c4d400020141008280400091007800318688008a
:10c4e400c0f70700c5f0ed000071ef00020037004f
:10c4f400600020003af907005031ed004f04780045
:10c5040000000600881f780000047800384090007e
:10c51400e74f50000900320003003e000004e00031
:10c524000b00320021003700e84f50001c0032009d
:10c53400e94f50001d003a000f003700e0c3b3007c
:10c54400e1fe070038009000dffe07001900370005
:10c55400c0c1b300dcfe0700660444000840780054
:10c56400d9fe07004840de00d7fe070000c2b30032
:10c57400d5fe07000f003700c0c1b300d2fe07008c
:10c584006604440008407800cffe07004840de00ff
:10c59400cdfe070010c2b300cbfe07000500370034
:10c5a40010c0b300c8fe070002003700500020008e
:10c5b4000bf907004f04780000000600889fbe00b6
:10c5c4008a9fbe008c9fbe0080047800010678001c
:10c5d40009007800ecd10700fb0120008b0f50000c
:10c5e40001003e00800578008000200094f90700d7
:10c5f400000478000b00e80091f9070000057800ba
:10c604008a067800890078000a007800d8d10700eb
:10c6140009007800dcd107008084440079f8970091
:10c6240041c2b300814f500011003a000c00e000f9
:10c634000a0032000c007800d3d107000000e800a3
:10c644007ff90700000578003a0498008c00780010
:10c654000a007800c6d10700020037000000eb0092
:10c664003004980010c0b300304498001100370023
:10c6740031c2b300814f500005003a0090c0b300ae
:10c68400304498001c4678006c4498000900370038
:10c694000051e2000300320070c0b300304498003f
:10c6a400020037000040eb00304498001c0678007c
:10c6b4003c0498003a8688002b4498002d04980086
