:020000040000fa
:080000000002040000000000f2
:020000040000fa
:0400080050040000a0
:020000040000fa
:04000c0020c200000e
:020000040000fa
:040010005004000098
:020000040000fa
:040014009cc200008a
:020000040000fa
:0400180058c20000ca
:020000040000fa
:04001c00500400008c
:020000040000fa
:040020005004000088
:020000040000fa
:040024005004000084
:020000040000fa
:040028005004000080
:020000040000fa
:04002c00500400007c
:020000040000fa
:040030005004000078
:020000040000fa
:04003400c8d400002c
:020000040000fa
:040038005004000070
:020000040000fa
:04003c00500400006c
:020000040000fa
:0400400072d1000079
:020000040000fa
:04004400fcd00000ec
:020000040000fa
:040048005004000060
:020000040000fa
:04004c00500400005c
:020000040000fa
:040050005004000058
:020000040000fa
:040054005004000054
:020000040000fa
:040058005004000050
:020000040000fa
:04005c00500400004c
:020000040000fa
:040060005004000048
:020000040000fa
:040064005004000044
:020000040000fa
:040068005004000040
:020000040000fa
:04006c00500400003c
:020000040000fa
:040070005004000038
:020000040000fa
:040074003ebd00008d
:020000040000fa
:040078005004000030
:020000040000fa
:04007c00500400002c
:020000040000fa
:040080005004000028
:020000040000fa
:040084005004000024
:020000040000fa
:040088005004000020
:020000040000fa
:04008c00500400001c
:020000040000fa
:040090005004000018
:020000040000fa
:04009400d0bd0000db
:020000040000fa
:040098005004000010
:020000040000fa
:04009c00500400000c
:020000040000fa
:0400a0005004000008
:020000040000fa
:0400a4005004000004
:020000040000fa
:0400a8005004000000
:020000040000fa
:0400ac0050040000fc
:020000040000fa
:0400b00050040000f8
:020000040000fa
:0400b40050040000f4
:020000040000fa
:0400b80050040000f0
:020000040000fa
:0400bc0050040000ec
:020000040000fa
:0400c00050040000e8
:020000040000fa
:0400c40050040000e4
:020000040000fa
:0400c80050040000e0
:020000040000fa
:0400cc0050040000dc
:020000040000fa
:0400d00050040000d8
:020000040000fa
:0400d40050040000d4
:020000040000fa
:0400d80050040000d0
:020000040000fa
:0400dc0050040000cc
:020000040000fa
:0400e00050040000c8
:020000040000fa
:0400e40050040000c4
:020000040000fa
:0400e80050040000c0
:020000040000fa
:0400ec0050040000bc
:020000040000fa
:0400f00050040000b8
:020000040000fa
:0400f40050040000b4
:020000040000fa
:0400f80050040000b0
:020000040000fa
:0400fc0050040000ac
:020000040000fa
:0401000050040000a7
:020000040000fa
:0401040050040000a3
:020000040000fa
:04010800500400009f
:020000040000fa
:04010c00500400009b
:020000040000fa
:040110005004000097
:020000040000fa
:040114005004000093
:020000040000fa
:04011800500400008f
:020000040000fa
:04011c00500400008b
:020000040000fa
:040120005004000087
:020000040000fa
:040124005004000083
:020000040000fa
:04012800500400007f
:020000040000fa
:04012c00500400007b
:020000040000fa
:040130005004000077
:020000040000fa
:040134005004000073
:020000040000fa
:04013800500400006f
:020000040000fa
:04013c00500400006b
:020000040000fa
:040140005004000067
:020000040000fa
:040144005004000063
:020000040000fa
:04014800500400005f
:020000040000fa
:04014c00500400005b
:020000040000fa
:040150005004000057
:020000040000fa
:040154005004000053
:020000040000fa
:04015800500400004f
:020000040000fa
:04015c00500400004b
:020000040000fa
:040160005004000047
:020000040000fa
:040164005004000043
:020000040000fa
:04016800500400003f
:020000040000fa
:04016c00500400003b
:020000040000fa
:040170005004000037
:020000040000fa
:040174005004000033
:020000040000fa
:04017800500400002f
:020000040000fa
:04017c00500400002b
:020000040000fa
:040180005004000027
:020000040000fa
:040184005004000023
:020000040000fa
:04018800500400001f
:020000040000fa
:04018c00500400001b
:020000040000fa
:040190005004000017
:020000040000fa
:040194005004000013
:020000040000fa
:04019800500400000f
:020000040000fa
:04019c00500400000b
:020000040000fa
:0401a0005004000007
:020000040000fa
:0401a4005004000003
:020000040000fa
:0401a80050040000ff
:020000040000fa
:0401ac0050040000fb
:020000040000fa
:0401b00050040000f7
:020000040000fa
:0401b40050040000f3
:020000040000fa
:0401b80050040000ef
:020000040000fa
:0401bc0050040000eb
:020000040000fa
:0401c00050040000e7
:020000040000fa
:0401c40050040000e3
:020000040000fa
:0401c80050040000df
:020000040000fa
:0401cc0050040000db
:020000040000fa
:0401d00050040000d7
:020000040000fa
:0401d40050040000d3
:020000040000fa
:0401d80050040000cf
:020000040000fa
:0401dc0050040000cb
:020000040000fa
:0401e00050040000c7
:020000040000fa
:0401e40050040000c3
:020000040000fa
:0401e80050040000bf
:020000040000fa
:0401ec0050040000bb
:020000040000fa
:0401f00050040000b7
:020000040000fa
:0401f40050040000b3
:020000040000fa
:0401f80050040000af
:020000040000fa
:0401fc0050040000ab
:020000040000fa
:0402000050040000a6
:020000040000fa
:0402040050040000a2
:020000040000fa
:04020800500400009e
:020000040000fa
:04020c00500400009a
:020000040000fa
:040210005004000096
:020000040000fa
:040214005004000092
:020000040000fa
:04021800500400008e
:020000040000fa
:04021c00500400008a
:020000040000fa
:040220005004000086
:020000040000fa
:040224005004000082
:020000040000fa
:04022800500400007e
:020000040000fa
:04022c00500400007a
:020000040000fa
:040230005004000076
:020000040000fa
:040234005004000072
:020000040000fa
:04023800500400006e
:020000040000fa
:04023c00500400006a
:020000040000fa
:040240005004000066
:020000040000fa
:040244005004000062
:020000040000fa
:04024800500400005e
:020000040000fa
:04024c00500400005a
:020000040000fa
:040250005004000056
:020000040000fa
:040254005004000052
:020000040000fa
:04025800500400004e
:020000040000fa
:04025c00500400004a
:020000040000fa
:040260005004000046
:020000040000fa
:040264005004000042
:020000040000fa
:04026800500400003e
:020000040000fa
:04026c00500400003a
:020000040000fa
:040270005004000036
:020000040000fa
:040274005004000032
:020000040000fa
:04027800500400002e
:020000040000fa
:04027c00500400002a
:020000040000fa
:040280005004000026
:020000040000fa
:100400000fbf27000eff27000e018800000000002c
:10041000000020000000e000020032000001200087
:10042000200288000c000700c017210001002000f6
:100430000f000700000020000000e0000200320072
:1004400000000200000000001ad4020000000000ba
:100450000040da000000fe00200020000000e00064
:100460000200320010002000900188000000060009
:10047000a1028800800078000000eb001a0037001d
:10048000e280400054a0b4009101ba00e280400034
:1004900054a0b4009102ba00e280400054a0b4001d
:1004a0000002eb00472bde00f507b200a601880032
:1004b000602ce10008003a000049eb000201e8006e
:1004c000020039003420ec0002f0a0008301e900b2
:1004d000f9ff3e00040037006128e100010032000e
:1004e0000082eb000b00070011c3ba001101ba0033
:1004f0000604e00003003a000200e000e0ff3a00da
:1005000000000600f607b200a6028800820078000c
:10051000f5ff370004d0a300e20f49001c003900aa
:10052000810278003549ba000201e8000200390072
:100530003420ec0002f0a0008301e9000f0032003b
:100540002549ba000201e800020039003420ec001d
:1005500002f0a0008301e900080032000400e0007e
:100560000600320015c9ba000201e8000200390095
:100570003420ec0002f0a0008301e9008180e80053
:1005800054a0b4000300e000e2ff3a0000000600bf
:100590009102ba00055978008301e900f7ff3200a3
:1005a000c82ade00055978008301e900f3ff320014
:1005b0000400e000f1ff320011d9ba00eeff37006d
:1005c000487e04000000000042800400000000009b
:1005d000927e040000000000c67e040000000000bf
:1005e00062a80400000000004aa704000000000008
:1005f000a2a504000000000098a404000000000070
:10060000a850040000000000685f04000000000023
:10061000e45e0400000000009654040000000000a6
:10062000be5e040000000000ca500400000000008c
:10063000e25d040000000000a25a04000000000077
:10064000085d04000000000060c10400000000001c
:100650005c52040000000000bc5c040000000000cc
:10066000a476040000000000c26b0400000000003b
:100670007256040000000000b86b04000000000087
:10068000ae6b040000000000a46b0400000000003a
:10069000566104000000000096690400000000009c
:1006a0003061040000000000966b040000000000b0
:1006b000dc720400000000008c6b040000000000ed
:1006c000826b0400000000002c7204000000000097
:1006d00094500400000000001061040000000000bd
:1006e0002262040000000000fc6104000000000021
:1006f00016770400000000008e6c0400000000006b
:10070000786b040000000000666804000000000030
:10071000366f040000000000bc6004000000000010
:10072000b06e040000000000d2730400000000005e
:100730006e6b040000000000be63040000000000b7
:10074000646b040000000000026804000000000068
:100750005a6b040000000000506b04000000000011
:10076000466b040000000000286e0400000000003a
:100770003c6b040000000000326b0400000000002d
:10078000726d040000000000066904000000000013
:10079000ae60040000000000286b040000000000b0
:1007a000046d0400000000001e5104000000000061
:1007b000e668040000000000a060040000000000e3
:1007c0001e6b040000000000146b04000000000019
:1007d0000a6b040000000000006b04000000000031
:1007e000b868040000000000f66a04000000000081
:1007f000ec6a040000000000e26a0400000000004f
:10080000d86a040000000000ce6a04000000000066
:10081000c46a040000000000d06c04000000000066
:10082000ba6a040000000000966c0400000000009a
:10083000b06a040000000000866c040000000000a4
:100840008260040000000000a66a040000000000ae
:1008500074600400000000009c6a040000000000b6
:10086000926a040000000000cc6b0400000000004d
:100870003e76040000000000886a040000000000ca
:1008800066600400000000001e600400000000001c
:10089000d2670400000000007e6a0400000000002f
:1008a0000040da000000fe000003b1000b0035003c
:1008b0009000b100080034008000b100070035004e
:1008c0009001b100040034007000b1000300350055
:1008d0009001b10001003c0010000500000005007f
:1008e0001004b100070035009001b100040034008d
:1008f0007000b100030035009001b10001003c0020
:1009000010000500000005000003b1000b003500d9
:100910009000b100080034008000b10007003500ed
:100920005000b10004003400b001b10003003500f4
:100930005000b10001003c0010000500000005005f
:100940000100e00001003a001100200001087800d9
:100950007c0040003007be00b01f7800a01f780068
:10096000640050004006be004005be004004be00ca
:100970004003be004002be004001be004000be0079
:10098000000006000098be000298be000498be0059
:100990000698be000898be000a98be000c98be00db
:1009a0000e18780064985700efb897000118780087
:1009b000ffb897000118780000000500800078005b
:1009c0001106b100030035009101b10001003c00a7
:1009d0000050a100000006000a00fa00e20f5000db
:1009e00020003e00204e8100e10f50000600320042
:1009f00080232000452320002323200004232000ff
:100a00000000e00004003a0080222000452220007f
:100a10002322200004222000060028001403630083
:100a200003003a000608780000002800140a70004d
:100a300013a8a30001003a0013a0a0000200780050
:100a4000050037001388a300feff32003102fb00cf
:100a5000840a78000000e9000000e000f9ff3a0095
:100a60000800370033002000b3bf9f00c0bf9f00c5
:100a7000d1bf9f00e2bf9f006a80570014050700a6
:100a80006fb99700020078000080fa0000000600ad
:100a9000839f68000100e00002003d00600010003c
:100aa000e08018000300e00002003d00600111003a
:100ab000e0811900140007004f00e00002003b0035
:100ac00060001000e080180000000600811f780020
:100ad0000100e00002003d0060001000e08018000e
:100ae0000300e00002003d0060011100e0811900f8
:100af000150007004f00e00002003b0060001000fe
:100b0000e0801800000006006022b8000602200005
:100b10000000d0008180d2000482d2008582d20001
:100b20000000a0000202520083825a00030031003c
:100b30000202420083824a000000a1000603e9008d
:100b4000f3ff3a0000000600efff07000400be00bc
:100b500000000600889fbe008a9fbe008c1f7800a0
:100b60000006eb00e00f5000e08f5800e00f590046
:100b7000e08f590007003d006044b8006055b800a0
:100b80000000540081805c0002015d0083815d00f3
:100b90001c002000e00f5200e08f5a00e00f5b00c5
:100ba000e08f5b0007003d006044b8006055b8006e
:100bb0000402540085825c0006035d0087835d00ab
:100bc0000c00a2000c0007000c00e0000600320040
:100bd0006022b8006033b8000000520081805a00e3
:100be00002015b0083815b004f0678004f05be0069
:100bf0004f04be0000000600889fbe008a9fbe0012
:100c00008c9fbe000404b8000506b80089044600a5
:100c100060854e000606b8000a054600e0854e00d5
:100c20000706b8008b054600040eb800890446008c
:100c30000a854e00e0854d00050eb8000a05460005
:100c40008b854e00060eb8008b0546000416b800d2
:100c50000a0546008b854e000516b8008b05460038
:100c6000041eb8008b0546000800be000a01be0045
:100c70004f06be004f05be004f04be000000060038
:100c800080007800010078003041780003c2b30092
:100c9000834f5100faff3200e94f5100f8ff320054
:100ca000edc14100834f510003003a0080007800fd
:100cb00013c0b300050037008041eb00b4c2b3009d
:100cc000844f510001003a00800078000000eb00e2
:100cd00002003700ea00b900000041003101fb00ca
:100ce0000203b100e90f5100faff36000304e000ef
:100cf000010032000000ea000000060080017800d8
:100d000002003700b15978000201e9000200e0005a
:100d1000fcff3a000000060080017800808f500040
:100d20000900310002824000800f520006003600a8
:100d30008401780082004000c36078000201e9006d
:100d4000fdff3a00000006000200e0000300320050
:100d5000b15978000201e900fbff370000000600ee
:100d60008001780002003700815978000201e90013
:100d70000200e000fcff3a000000060000017800dd
:100d800002007800b041780081cf510003003200aa
:100d90000304e000f9ff3a000001eb0002007800d4
:100da00000000600b041780031c1510002003a0055
:100db0000304e000fbff3a000200fb000000060015
:100dc00000017800b1417800035978000304e00085
:100dd000fcff3a0000000600800078003104e000cb
:100de000feff3a000080ea0000804000000006009c
:100df0000a003700b04178000304e000030032002d
:100e00000201e900b1cf5100040032008381fb00f0
:100e10001480fb00008051000000060001027800f1
:100e20000200e000f3ff3a000000050080017800b6
:100e3000060037000201e900b142780085597800c8
:100e4000030278000504e000060032000302780087
:100e50000200e000f7ff3a0002003700005aeb0002
:100e60000201e9000200e000fcff3a000000060079
:100e7000889fbe000004be0008007800d6ff07006f
:100e80000000440090cf140005003200880f50008d
:100e9000020032000000e900faff37000000eb001a
:100ea0004f04be0000000600889fbe000004be0084
:100eb0000b00370009007800c7ff07000001780029
:100ec0000800be00caff07000000e0000900320071
:100ed0000800e8009900fb00a8ff07000004780064
:100ee0000800e000030032001804e000f1ff3a00bf
:100ef0000004eb00080078004f04be00000006006c
:100f00000c00fa00889fbe0000047800f0ff270064
:100f1000d0bf9f008004eb0099bf9f0088bf9f0057
:100f2000a8bf9f00200c2000b0bf9f007881570011
:100f3000cfb0970070805700100007000fb89700df
:100f4000094878008fb89700088050004f04be0011
:100f50000080fa0000000600d001900002815100dc
:100f60004240a900030034001001780001497800d4
:100f70000208e8000100780000000600fe87470034
:100f8000889fbe008a9fbe008c9fbe008e1f780087
:100f900080067800d1af9f0092b79f000007eb005a
:100fa0003d033700dfa897008100e800d1af9f0024
:100fb00051c2b300814f500003003a005fa8970070
:100fc0000006eb0011003700bd0090000000fb00a0
:100fd0000168a300070032000e017800800078004d
:100fe0000d007800dcff07000000e00005003a007b
:100ff000290337008d00780033030700e10f40001c
:10100000250332000e07e800230337008000780034
:1010100030417800d3c2b300834f51000c0032003e
:1010200007003c00edc15100834f51000a0032001f
:10103000ebc14100834f51000d003a00080037001a
:1010400003c3b300834f510009003a000600370084
:101050000c30a000edff37000c00a000ebff3700c4
:101060000c10a000e9ff37000c20a000e7ff3700bc
:101070000c18a300010032000c00a1000c38a300e2
:10108000010032000c20a1000200fb000003b100af
:10109000e90f50000c003e00010178000000eb0059
:1010a000ea00b900b200fb000103b100008040007b
:1010b000820078009201fb000303b100e98f510028
:1010c000f7ff3600080037000000eb00a3c2b300b2
:1010d000834f510004003a001fb19700420078008e
:1010e00092b79f008100e8008001eb00a3b79f004a
:1010f000e2c2b300914f11000c003a000ce0a000d6
:1011000064415100d14f1100030032000101780009
:1011100003027800090037001fb29700c40278006c
:1011200094b79f00a5b79f008100e80001017800f7
:1011300009003700ea22b9000482410082007800e9
:10114000b201fb000303b100e98f5100f9ff360043
:10115000a4b79f00f5ff3700b2407800d2af9f00e0
:10116000c3c6b30083cf5000250032000f003c00ff
:1011700032c6b30082cf5000a000320004003c0011
:101180000104e000c90232006b4151000f0037003a
:1011900042c6b30082cf50001700320065414100c3
:1011a00082cf5000b3003a001300370032c7b300bb
:1011b00082cf50001f00320007003c006441510004
:1011c00082cf5000140032000241e80082cf50006c
:1011d000a8003a001300370052c7b30082cf500076
:1011e000ab0032006341410082cf5000a1003a00c1
:1011f000e1d79f000d003700e1d79f00a600370020
:10120000010120000c48a300010032000100280069
:101210000c867000d0ff3700e1d79f000c60a00063
:101220009d003700e1d79f000c50a0000c70a0007b
:1012300099003700e1d79f009fb39700c70078005f
:1012400097b79f00b1b79f000100e00002003a008d
:10125000097e2200b9b79f003fb197008000eb00e4
:10126000010037008100e800810141001304e00023
:10127000fcff3a00c1b79f002fb597000a00e000bd
:1012800005003200cfb597008b0f550002003100ea
:101290008a007800c1b79f00cfb097000004eb0030
:1012a000810f5000010036000104500068066600fe
:1012b0002b003a00110037003d0090000068a300a9
:1012c000070032000e017800010220000d007800b6
:1012d00021ff07000000e00006003a00060037008a
:1012e0008d0078000002200077020700e10f400027
:1012f000010032000e07e8000804e9000800e000e1
:10130000edff3a000084eb00150037003d0090002f
:101310000068a3000900320008007800b000fb005c
:10132000000478000e0178000d0078000aff070025
:101330000000e00008003a000f0037008800780045
:101340003100fb00010478008d0078005e02070088
:10135000e10f4000080032000e07e80006003700e9
:10136000acb79f00080678003fb49700cfb4970051
:101370005fb59700efb59700090078008004e90099
:101380000000e000e1ff3a00b8b79f00c9b79f0036
:10139000dab79f00ebb79f000c0478002fb69700d8
:1013a0000c00e0003c023200110037003d009000cc
:1013b0000068a300070032000e017800010220003f
:1013c0000d007800e4fe07000000e00006003a008f
:1013d000060037008d007800000220003a02070066
:1013e000e10f4000010032000e07e8000804e900a8
:1013f0000800e000edff3a00270237009fb2970097
:101400004504780095b79f00cfc4de00614db90058
:101410000802be000a03be004822de00c828dd0024
:1014200004827000e4d79f000c48a300090032003a
:101430000404e00007003200e14f420005003200e2
:10144000f4d79f0088df9f0022002000c2b79f00d2
:1014500003003700f8d79f0013002000c3b79f0098
:1014600064fd2f000f0242000402e800b4b79f00a1
:1014700081ff3700e1d79f0065fd2f00858247007f
:10148000b5b79f0016002000c6b79f007aff37004f
:10149000e1d79f000c0cb3008c007800010cb20067
:1014a00032003a000c00e00005003d009fb09700bc
:1014b0004105be004104be0091b79f0008003700ff
:1014c0000c48a3000b0032001fb297004401be007d
:1014d00094b79f000204be004fcdde008a0578005d
:1014e000b8b79f00c9b79f00dab79f00ebb79f005e
:1014f000090037009fb49700c900780099b79f0092
:10150000610ab900612bb900b4b79f00c5b79f004d
:10151000d6b79f00e7b79f003fb49700cfb49700be
:101520005fb59700efb59700e00f5400e08f5c00c7
:10153000e00f5d00e08f5d0022003d003c00b30045
:101540006022b8006033b8000804520089845a0051
:101550000a055b008b855b00b8b79f00c9b79f0089
:10156000dab79f00ebb79f00160037000c00e000d1
:1015700004003d001fb497004803be004802be00af
:10158000050037000c48a300050032001fb4970087
:101590004802be006033b80098b79f0005003700ce
:1015a0009fb49700c900780099b79f00610ab800fe
:1015b0006033b800b4b79f00c5b79f00d6b79f008f
:1015c000e7b79f00afb297000500e0000d003a00ba
:1015d00016002000a6b79f003fb49700cfb4970035
:1015e0005fb59700efb59700e00f5400e08f5c0007
:1015f000e00f5d00e08f5d00020032008004eb0030
:10160000a9b79f000c0578000a0cb2008ab79f00aa
:1016100001042000810f55003400320003003c001b
:101620000a00e000080032004800370001082000ee
:101630008fb59700818f550014003200010c2000f7
:10164000818f550041003a00027f220011c0b30093
:101650003202be003203be003fb49700cfb4970001
:101660005fb59700efb597000440e10005c8e100c1
:1016700006d0e10007d8e100330039008140e800de
:10168000f4cf5000f2ff3a002f00370011c0b30032
:1016900004012000050020006033b8003fb497002b
:1016a000cfb497005fb59700efb597000440e10015
:1016b00005c8e10006d0e10007d8e10022003900aa
:1016c000490020000402d0008582d2000683d200a7
:1016d0008783d2008904e900faff3a008140e800dc
:1016e000f0cf5000edff3a001700370011c0b300f3
:1016f00084002000050020006033b8003fb497004c
:10170000cfb497005fb59700efb597000440e100b4
:1017100005c8e10006d0e10007d8e1000a00390061
:10172000390020000402d0008582d2000683d20056
:101730008783d2008904e900faff3a008140e8007b
:10174000f5cf5000edff3a00e1d79f006fd597002d
:101750008a00fb00afb597008b8f500002003d0060
:10176000ebd79f00040037002fb19700810f510085
:1017700001003d00a1b79f000000e000030032001f
:10178000e3006600010032000000e9000ce8a3005d
:1017900006003200afb19700830f50000200340002
:1017a00003005000010037000000eb006fd29700eb
:1017b0008400fb008002eb00f5af9f00810f50001a
:1017c0000200340081005000f1af9f000c28a300fc
:1017d0003c003200610166000c18a3000f003200cb
:1017e0003d0090000068a30006003200b102200016
:1017f0000200e000010032008180e8000e01780064
:101800000d003700b00220000200e00001003200ad
:101810000080e8008d0078000e0037000200e00034
:10182000100032003d0090000068a3000700320065
:101830000e017800010220000d007800c6fd0700af
:101840000000e00006003a00060037008d00780036
:10185000000220001c010700e10f400001003200df
:101860000e07e8007fab97000600e0005200320050
:10187000060478003d0090000068a30007003200d5
:101880000e017800010320000d007800b2fd070072
:101890000000e00006003a00060037008d007800e6
:1018a0000003200008010700e10f400001003200a2
:1018b0000e07e8000804e900eeff3a00f8af9f00c9
:1018c0003d003700ffab97000700e0001600320034
:1018d0000c38a30014003a00070478003d00900083
:1018e0000068a300070032000e017800010220000a
:1018f0000d00780098fd07000000e00006003a00a7
:10190000060037008d00780000022000ee0007007e
:10191000e10f4000010032000e07e8000804e90072
:10192000eeff3a00f8af9f00610166000c18a300bb
:101930000f0032003d0090000068a3000600320056
:10194000b10220000200e000010032008180e800c6
:101950000e0178000d003700b00220000200e00008
:10196000010032000080e8008d0078000e00370092
:101970000200e000100032003d0090000068a3006b
:10198000070032000e017800010220000d007800ef
:1019900071fd07000000e00006003a000600370075
:1019a0008d00780000022000c7000700e10f400012
:1019b000010032000e07e8002fb497008800e9000c
:1019c000c308dd00807e220000804000e0af9f0061
:1019d00096003700afb497008904e900a9b79f00cb
:1019e000000420000fb59700800f55006a003200f8
:1019f00003003c000a00e0000800320077003700d6
:101a0000000820008fb59700808f55004c003200f1
:101a1000000c2000808f550070003a000c00e000a0
:101a20001e003d006fa897003004be002005be00d8
:101a30000802be000a03be003fb09700cfb0970077
:101a40005fb19700efb19700c2010700e0d79f0098
:101a50000000fb00cf80de006109b9000802be0073
:101a60000a03be003bfc07003fb29700cfb29700cd
:101a70005fb39700efb397000002520081825a00d3
:101a800002035b0083835b00b4b79f00c5b79f0070
:101a9000d6b79f00e7b79f00250037000c48a3008a
:101aa0001a0032003fb29700cfb297006fab970099
:101ab0003604be002605be000801be000400be00bc
:101ac000f4b79f0085bf9f000ffc0700e0d79f0081
:101ad0000000fb00cf80de000801be00fe00070012
:101ae0007fb297008fba97000002520081825a009d
:101af0000404be006055b800b8b79f00c9b79f0086
:101b0000dab79f00ebb79f0009003700efac9700f2
:101b1000190178003fb59700110009000285d8002f
:101b2000a2002000110009000280d800e1d79f0028
:101b3000efd597000b43b000ebd79f00270037008d
:101b4000f07c22000c58a30001003200e07b220050
:101b50002fb19700c210dd003fb29700cfb29700bf
:101b60005fb39700efb397008100e90005003300f1
:101b70008703d1000683d3008582d3000482d3007b
:101b8000f9ff37006f02620004024000144278003f
:101b9000e4d79f0011003700afb19700e318b900f8
:101ba0003fb29700cfb297005fb39700efb39700b3
:101bb000000478000804e900050033008703d10021
:101bc0000683d3008582d3000482d300f9ff370057
:101bd000674062000043b000e0d79f00bd00900066
:101be000efd497000900fb000168a3000700320052
:101bf0000e017800800078000d007800d6fc070008
:101c00000000e00005003a00050037008d00780074
:101c10002d000700e10f4000010032000e07e80030
:101c20006fad970068055500eaaf9f00afb597000c
:101c30000b00e00067ff3a000c38a30016003200ea
:101c40007fa897000000e000130034000004780033
:101c50003d0090000068a300070032000e017800ec
:101c6000010220000d007800bbfc07000000e0002e
:101c700006003a00060037008d00780000022000c0
:101c800011000700e10f4000010032000e07e800dc
:101c90000804e900eeff3a00dfa897001140780041
:101ca000e0d79f000004e000befc3a000e00780080
:101cb0004f0778004f06be004f05be004f04be0020
:101cc000ef01b10000000600889fbe00010478000b
:101cd000b80090008084eb000118a3003a003200a5
:101ce000180190000198a30002003a000200e000f1
:101cf00035003a000190a00031049800800478007b
:101d0000f90fb2000200e00002003a002800900043
:101d1000000c7800ea8f540005003a000178a30017
:101d200003003a0088007800d0002000e6ff07009a
:101d300018009000d8009000810f50000b00320076
:101d40000000e800100498001800780009487800a6
:101d5000000ce80011c0b300c09b220001487800cd
:101d6000ea8f540018003a00050037008800780018
:101d7000094078001700070080047800120037003f
:101d8000380090000088a3000f0032001801900076
:101d9000a8009000480090000ffb070098009000fa
:101da000810f500004003200380090000003b3009f
:101db000300498008084eb000000eb0010049800d1
:101dc00028009000000c7800090078004f04be0045
:101dd000000006000200fa00889fbe00a0ff9f00de
:101de00001047800380090000068a30033003a0036
:101df000e200600005003a000003b30030049800e0
:101e0000110498000080eb002e003700d8049000e9
:101e10000900e00006003a0012002000e6805700aa
:101e200048009000ecfa07001904980023003700de
:101e3000a80090000100e00008003a00f19b220099
:101e400021049800010c7800210020005104980022
:101e5000110498000030a000300498001801900090
:101e6000a800900048009000dbfa070028009000ce
:101e70008080eb0011049800aff8970001487800cb
:101e8000000ce8002ff89700ea4f50000b003a00d2
:101e9000380090000088a30008003200180190006c
:101ea000a800900048009000cbfa07000000eb006b
:101eb00010049800a8009000010c7800aff897007b
:101ec0000100fb004f04be000080fa000000060085
:101ed00000c0da0000000600020ab900001bb900c9
:101ee0000200b800810042008100430000000600ab
:101ef000889fbe008a9fbe0030044200b0844a0022
:101f000030054b0090854b006000b1000898be0082
:101f10000a90be000440e10005c8e10006d0e100df
:101f200007d8e10002003100680040001008e80016
:101f30004f05be004f04be0000000600889fbe0093
:101f40008a9fbe003004be002005be000418540065
:101f500005985c0006185d0007985d0011002000e0
:101f60000440e10005c8e10006d0e10007d8e10027
:101f7000010039008000eb00108810004f05be0002
:101f80004f04be00000006001200fa00889fbe0049
:101f90008a9fbe008c9fbe00e0b79f00f1b79f00f4
:101fa00082bf9f0093bf9f000605be000404be00d1
:101fb0000000eb00d0b79f00c0b79f00b0b79f00f4
:101fc000a0b79f0090b79f000006eb005fb197009d
:101fd000cfb09700820141003fb097000200e000bf
:101fe00004003d00370007007e805700c0ff070057
:101ff00003003700330007007e805700cfff070043
:10200000dfb697000d00e0000c0035006fb29700be
:10201000ffb297000fbb97009fbb970010002000f6
:10202000010020006011b80000027200818272007d
:1020300002037300838373001b0007000c06e80093
:1020400001042000810f5600e0ff3a000d00e0007f
:1020500004003d000802be000a03be007e80570057
:10206000a3ff07005fa897000000e00005003a000a
:102070001fb29700afb297003fb39700cfb397005e
:10208000090007006fb09700ffb097000fb99700e5
:102090009fb997004f06be004f05be004f04be001b
:1020a0000080fa00000006000100070000000600a2
:1020b000a4b79f00b5b79f00c6b79f00d7b79f00d2
:1020c000000006004f09de0082817100b3b79f0057
:1020d0004f01de008180400082807000a1b79f0028
:1020e0008fb097004f09de00000040000200700032
:1020f00090b79f007fa897004f01de0081804000cd
:102100008280700081b79f000d0007004f3ade000b
:102110000000400004007000f0af9f0008000700be
:102120000402420085824a0006034b0087834b006d
:10213000dfff07000802be000a03be000000060021
:102140002fb29700bfb297004fb39700dfb397004d
:1021500000000600881f780018002000881f780003
:1021600089ff07008f87e9004f0478000000060010
:10217000801feb0084ff07008f87e9000000060046
:10218000889fbe008a9fbe00e00f5000e08f58007d
:10219000e00f5900e08f59000c003d006044b8008a
:1021a0006055b8000000540081805c0002015d00b1
:1021b00083815d00180020001500070008003d0025
:1021c000180007000004eb00050037000004eb00d6
:1021d0000f00070002003d00120007001800200059
:1021e000dcff07000800e000060032006022b800b3
:1021f0006033b8000000520081805a0002015b0089
:1022000083815b004f05be004f04be000000060046
:10221000e00f5200e08f5a00e00f5b00e08f5b00a0
:10222000000006006044b8006055b8000402540085
:1022300085825c0006035d0087835d000000060068
:10224000889fbe008a9fbe008c1f7800e00f500060
:10225000e08f5800e00f5900e08f59000d003d005d
:102260006044b8006055b8000000540081805c00f4
:1022700002015d0083815d001c0020000820e10058
:1022800009a8e1000ab0e1000bb8e1000d003d0033
:10229000080037000006eb00e00f5200e08f5a0004
:1022a000e00f5b00e08f5b0006003d006044b8007b
:1022b0006055b8000402540085825c0006035d008e
:1022c00087835d00aaff07000c00e00006003200d3
:1022d0006022b8006033b8000000520081805a00cc
:1022e00002015b0083815b004f0678004f05be0052
:0822f0004f04be0000000600cf
:020000040000fa
:1022f800522600006c0100008000000098290000b0
:1023080012000000800000006c1f000000020000a6
:10231800800000000e1100000c000000800000008a
:10232800c229000002000000820000002f00000007
:1023380088280000ba000000820000000a5043000c
:102348003a2000002a000a00616e7900206b6500bf
:10235800792e2e002e0075007365200061727200c0
:102368006f7720006b657900732074006f20700010
:102378006f73690074696f006e2072006173740076
:1023880065722e000a00720065626f006f74650046
:1023980064206f006e200000616464007265730041
:1023a8007320650078636500707469006f6e0a00b9
:1023b8000073740061636b002065780063657000ca
:1023c80074696f006e0a00006d6174006820650012
:1023d80078636500707469006f6e0a0000646900b4
:1023e80076697300696f6e002062790020300a00f8
:1023f800007265007365740074656400206279007a
:1024080020617000706c690063617400696f6e0010
:102418000a000000c028000000cd28000000e000ed
:1024280028000000f1280000000129000000100029
:1024380029000000301100000800000082000000a0
:102448008603070000000000d02b000040110000a8
:102458000600000082000000ffff3c0000ff0000b3
:1024680000800000b04f0000800000004e11000006
:10247800020000008200000000000000d02b0000d5
:102488002050000082000000000000000000000052
:102498000000000000000000000000000000000034
:1024a8000000000000000000000000000000000024
:1024b8000000000000000000000000000000000014
:1024c8000000000000000000000000000000000004
:108f6800aa29000012000000820000003f20000033
:108f78002a000a00616e7900206b6500792e2e00a8
:108f88002e00000044230000900100008000000033
:108f98001a1100000c0000008000000046110000bb
:108fa80004000000820000000f0101000000000022
:108fb8004229000030000000800000002611000057
:108fc8000a000000800000004a11000004000000b0
:108fd8008200000080000000040000006c210000f6
:108fe800d8010000820000001c006100003200006f
:108ff80062002100006300002300640000240000d8
:1090080065002b0000660000340067000033000094
:1090180068004300006900003b006a00004200004d
:109028006b004b00006c00003a006d00003100003e
:109038006e004400006f00004d0070000015000035
:1090480071002d00007200001b007300002c00004e
:1090580074003c00007500002a007600001d000026
:10906800770022000078000035007900001a00001f
:109078007a0045000030000016003100001e000094
:10908800320026000033000025003400002e0000c6
:1090980035003600003600003d003700003e000075
:1090a800380046000039000029002000004e00006a
:1090b8002d005500003d00000e006000000d00006e
:1090c80009005400005b00005b005d00004c0000dc
:1090d8003b004100002c000049002e00004a00001f
:1090e8002f005200002700005d005c0000660000b1
:1090f80008000d00000900005a000d00007600006d
:109108001b00700000300000690031000072000090
:1091180032007a00003300006b0034000073000056
:1091280035007400003600006c0037000075000040
:1091380038007d00003900004a002f00007c000044
:109148002a007b00002d000079002b00005a000047
:109158000d007100002e00000500800000060000d0
:1091680081000400008200000c008300000300005e
:1091780084000b000085000083008600000a0000c0
:10918800870001000088000009008a0000780000bc
:109198008b000700008c000000000000000e00009b
:1091a8007e001600002100001e004000002600007e
:1091b80023002500002400002e00250000360000b2
:1091c8005e003d00002600003e002a000046000028
:1091d80028004500002900004e005f0000550000ef
:1091e8002b005d00007c00004c003a00005200009b
:1091f80022004100003c000049003e00004a0000f7
:109208003f005400007b00005b007d000000000070
:1092180000000000000000004a002f00005a000073
:109228000d007500008d000072008e00006b0000bc
:109238008f007400009000006c009100006900002d
:1092480092007d00009300007a00940000700000f6
:10925800950071000096000000000000000000006a
:1092680038110000080000008000000056110000be
:109278003e0500008200000052414d002066720049
:10928800656520006279740065733a0020002a0041
:10929800006d6f0072652e002e2e00000a466900d0
:1092a8006c65730020666f00756e64003a200000dc
:1092b8006c696e00653a2000000a74006f6b5f00ed
:1092c80069643a0020000a00746f6b005f766100e1
:1092d8006c7565003a200000756e73007065630058
:1092e8007465640020656e0064206f00662063006a
:1092f8006f6d6d00616e64002e006400656c650022
:109308007465200000796e0000202800792f6e0017
:109318002900200066696c006573200064656c0094
:1093280065746500642e0a0000544f000053540011
:10933800455000005056310036534f004720730007
:1093480068656c006c0a760065727300696f6e0060
:1093580020312e00300a0000434c450041522c00b9
:1093680020636c0065617200207072006f67720084
:10937800616d20006d656d006f7279002e0a000026
:10938800434f500059206600696c6500206e6500e7
:10939800775f6600696c65000a436f00707920008a
:1093a800276669006c65270020746f0020276e000f
:1093b80065775f0066696c0065270a000044450010
:1093c8004c206600696c65000a4465006c65740091
:1093d8006520270066696c0065272c00206d6100f8
:1093e8007920750073652000272a27002066690008
:1093f8006c746500720a000044495200205b6600e4
:10940800696c740065725d000a4c69007374200011
:1094180066696c00652069006e2072006f6f7400c9
:109428002064690072656300746f7200792c2000f3
:109438006d61790020757300652027002a272000b8
:1094480066696c00746572000a004500444954005e
:10945800205b6600696c6500206e61006d655d00cb
:109468000a4c6100756e63006820740065787400aa
:109478002065640069746f00722e0a00004652006d
:1094880045450a0044697300706c610079206600e4
:1094980072656500206279007465730020696e004a
:1094a800207072006f677200616d20007370610038
:1094b80063652e000a00480044554d0050206600a0
:1094c800696c65000a44690073706c00617920005a
:1094d800636f6e0074656e0074206f00662027004d
:1094e80066696c0065272000696e20006865780051
:1094f8006164650063696d00616c0a00004845009d
:109508004c5020005b636f006d6d61006e645d0000
:109518000a44690073706c00617920006c697300fb
:1095280074206f00662063006f6d6d00616e6400cb
:10953800730a5700697468002061720067756d00ce
:10954800656e74002064690073706c006179200096
:10955800636f6d006d616e0064206800656c70005b
:109568002e0a00004d4f520045206600696c6500c8
:109578000a4c690073742000636f6e0074656e0096
:1095880074206f00662074006578740020276600d8
:10959800696c6500272074006f2073006372650092
:1095a800656e0a000052410053544500520a5500a6
:1095b80074696c006974790020746f002063650019
:1095c8006e74650072206400697370006c617900c4
:1095d800206f6e002054560020736300726565008a
:1095e8006e0a0000524542004f4f54000a436f0074
:1095f8006c642000726573007461720074206f00df
:10960800662063006f6d700075746500722e0a0025
:10961800005245004e206600696c65005f6e61006f
:109628006d6520006e6577005f6e61006d650a00ec
:1096380052656e00616d650020276600696c6500e3
:109648005f6e61006d65270020746f0020276e0033
:1096580065775f0066696c00650a000052554e0028
:10966800207072006f677200616d2e006261730076
:109678000a45780065637500746520006120620002
:109688006173690063207000726f670072616d001a
:10969800207374006f72650064206f006e205300a1
:1096a80044206300617264002e0a0000466f720055
:1096b800206865006c7020006f6e200042415300e6
:1096c800494320007265610064207500736572006b
:1096d800277320006d616e0075616c002e0a000012
:1096e8004e6f740020612000636f6d006d616e0025
:1096f80064206f00722042004153490043206b00f0
:10970800657977006f7264000a00fe00110000009e
:109718001c120000004a120000007600120000002f
:10972800b412000000da1200000005001300000067
:109738003a130000008713000000b800130000006f
:10974800e7130000000914000000410014000000a5
:109758007d14000000a41400000063006f6d700009
:10976800696c69006e67200000636f006d706c00a3
:10977800657465006420000066696c0065206f00f0
:1097880070656e0020657200726f72002000000024
:1097980000150000000b1500000016001500000061
:1097a8006e6f2000657272006f720a0000646100bb
:1097b8007461200073746100636b20006f7574001e
:1097c800206f660020626f00756e64000a006300f7
:1097d8006f6e7400726f6c002073740061636b00ad
:1097e800206f750074206f00662062006f756e0030
:1097f800640a00006d69730073696e006720610078
:10980800726775006d656e00740a0000746f6f00f2
:10981800206d75006368200061726700756d6500d2
:109828006e7473000a006200616420006172670050
:10983800756d65006e740a00007379006e746100be
:109848007820650072726f00720a00006d656d0005
:109858006f72790020616c006c6f6300617469003d
:109868006f6e2000657272006f720a0000636100fb
:109878006e277400206265002072650064656600ca
:10988800696e6500640a000063616e002774200039
:10989800626520007265610073736900676e650018
:1098a800640a0000756e6400656669006e65640090
:1098b800206172007261790020766100726961002e
:1098c800626c65000a0063006f6d6d00616e640074
:1098d800206c69006e6520006f6e6c007920640052
:1098e800697265006374690076650a000061720038
:1098f8007261790020696e0064657800206f7500d8
:1099080074206f0066207200616e6700650a0000af
:1099180070726f00677261006d2073007061630080
:1099280065206600756c6c000a00340015000000a4
:109938003e150000005715000000730015000000d8
:1099480085150000009915000000a700150000000b
:10995800b515000000ce15000000e200150000005b
:10996800f71500000011160000002e001600000078
:109978004816000000000000341a0000ba02000077
:1099880080000000fc1000001200000080000000b1
:10999800d42400007e0100008200000045525200dd
:1099a8004f523a0020002a0000004d00656d6f00fc
:1099b80072792000616c6c006f63610074696f00dc
:1099c8006e2e00004e6f2000534420006361720029
:1099d800642064006574650063746500642e00008b
:1099e8005061720074697400696f6e0020616300d1
:1099f80063657300732e00004641540020616300c4
:109a080063657300732e0000446972006563740017
:109a18006f7279002061630063657300732e000024
:109a280046696c0065206e006f742000666f7500d3
:109a38006e642e00004669006c6520006163630057
:109a4800657373002e004600696c6500207365001d
:109a5800656b2e00004669006c6520007265610028
:109a6800642e000046696c006520770072697400f6
:109a7800652e000046696c00652063007265610010
:109a880074652e00004669006c652000746f6f00d5
:109a980020626900672e00004164640072657300eb
:109aa8007320650078636500707469006f6e2e001e
:109ab8000030200064697600697369006f6e2000c9
:109ac8006578630065707400696f6e002e0044004d
:109ad8004d4120006578630070657400696f6e0001
:109ae8002e004d0061746800206578006365700081
:109af80074696f006e2e000053746100636b200060
:109b08006578630065707400696f6e002e00500000
:109b1800532f3200206b650079626f006172640018
:109b2800206e6f00742064006574650063746500be
:109b3800642e0000de24000000df24000000f20094
:109b4800240000000725000000192500000025005a
:109b580025000000372500000047250000005400bc
:109b6800250000005f250000006a2500000076003f
:109b78002500000083250000009125000000a400b6
:109b880025000000ba25000000c925000000d90002
:109b980025000000ea250000000000005011000028
:109ba8000200000080000000ee1c00007e020000a1
:109bb8008200000066696c00652075006e736100a4
:109bc80076656400212063006f6e7400696e75000d
:109bd80065202800792f6e00293f00006c6f610016
:109be80064696e0067206600696c65002e2e2e0081
:109bf8000a002000627974006573000066696c00d1
:109c0800652563003a202500732c200073697a00cb
:109c1800653a2000256400006e6f20006e616d00bb
:109c2800652563002c207300697a65003a202500b9
:109c38006400550053414700453a200074617200a2
:109c480067657400205b2d00495d20005b2d4c008a
:109c58005d0a00003f200000676f74006f206c00f1
:109c6800696e65003a20000066696c0065206e0028
:109c7800616d65003f2000006f7065006e20660012
:109c8800696c65000a007300617669006e672000e0
:109c980066696c00652e2e002e0a00002073610094
:109ca800766564002c207300697a65003a2000000c
:109cb8003c435400524c2d0044454c003e20640067
:109cc800656c650074652000746f2000656e640023
:109cd800206f6600206c69006e650a00003c430036
:109ce80054524c002d413e002073610076652000df
:109cf80061730a00003c430054524c002d454e004d
:109d0800443e200066696c00652065006e640a00a8
:109d1800003c430054524c002d463e00206c690024
:109d28007374200053446300617264002066690004
:109d38006c6573000a003c00435452004c2d4700e8
:109d48003e2067006f746f00206c69006e652e00fe
:109d58002e2e0a00003c430054524c002d483e0071
:109d68002064690073706c0061792000686f74006a
:109d78006b657900730a00003c435400524c2d0077
:109d8800484f4d00453e200066696c006520730011
:109d980074617200740a00003c435400524c5f0026
:109da8004c454600543e2000776f720064206c00da
:109db800656674000a003c00435452004c2d4e0066
:109dc8003e206e006577200066696c00652e2e00c7
:109dd8002e0a00003c435400524c2d004f3e2000f8
:109de8006f7065006e206600696c65002e2e2e006f
:109df8000a003c00435452004c2d51003e205100b3
:109e0800756974002065640069746f00720a000047
:109e18003c435400524c2d005249470048543e00e0
:109e280020776f00726420007269670068740a0006
:109e3800003c430054524c002d533e0020736100f7
:109e48007665200066696c00650a00003c463100b2
:109e58003e206600696c6500206e61006d6520001b
:109e6800616e6400207369007a650a003c4633001d
:109e78003e2073006574200073656100726368009a
:109e8800206372006974650072696f006e0a0000d1
:109e98003c534800494654002d4633003e20730089
:109ea80065617200636820006e657800740a0000be
:109eb80000ab1d000000cd001d000000df1d0000ec
:109ec80000f41d00000010001e000000271e000006
:109ed80000411e00000059001e000000701e000016
:109ee80000861e0000009d001e000000b31e00003a
:109ef80000cc1e000000e0001e000000131f000040
:109f0800002b1f000000000094160000a0030000b2
:109f180080000000521100000200000080000000d4
:109f280000100000fc000000800000005411000038
:109f3800020000008200000000000000be270000b0
:109f4800ca0000008200000030313200333435008e
:109f58003637380039414200434445004600300056
:109f680031323300343536003738390061626300e6
:109f78006465660000286e00756c6c00290000009e
:109f8800010000000000000000000a0000000000be
:109f98000000000000640000000000000000000055
:109fa800e803000000000000000010002700000087
:109fb8000000000000a08600010000000000000072
:109fc80040420f000000000000008000969800004a
:109fd800000000000000e100f5050000000000009e
:109fe80000ca9a003b00000000000000e40b540087
:109ff800020000000000e80076481700000000009a
:10a008000010a500d4e8000000000000a0724e0077
:10a0180018090000000040007a10f3005a00000000
:10a028000080c600a47e8d000300000000c16f0000
:10a03800f2862300000000008a5d78004563010075
:10a0480000006400a7b3b600e00d000000e8890036
:10a058000423c7008a0000007229000026000000bf
:10a0680082000000bd29000000bd29000900000091
:10a0780000020000bf29000000bf29000e020100f5
:10a0880000000000000000000000000006020200be
:10a098000000000072290000bc2900000600000032
:10a0a80080000000c42900000200000082000000b7
:08a0b80001000000e4d4800067
:020000040000fa
:10a0c000c5d0bf000000fb00000040004108210097
:10a0d000008040001001780002007800c810b40031
:10a0e00080017800cad0ed0082495000c5d0bf0081
:10a0f0000000fb00000040008080400091007800dc
:10a1000001007800c810b4008001780052868000f9
:10a110000281e90081005100c808de0091419800e9
:10a12000c570ed00000006005031ec00c550ec0099
:10a13000c5f0b7000000fb0000004000410821000e
:10a140000080400051868000010878000000060071
:10a15000c5f0ef00ca30ef00fc30ef00fe30ef003a
:10a160000071ef005031ef004086800012888000bf
:10a1700082004000318688008000eb00f8da07009a
:10a180000c31ef000671ef000771ef000831ef00ae
:10a1900000000600bc3d07006015210007310700e4
:10a1a00050868000c810b400c610b500cf80de0015
:10a1b0000001eb001c310700000006002800fa0037
:10a1c000881f7800010478004200dd0081522100e0
:10a1d000008040001001be0060fd2f000f00400015
:10a1e0000d33070060fd2f000f004000f330070023
:10a1f00008007800f1300700a33d07004f04780005
:10a200000080fa00000006008000fa004200dd0035
:10a21000414c2100008040001001be0000f82f00da
:10a220000f004000fc32070000f82f000f00400034
:10a23000e23007000080fa0000000600208880005d
:10a24000e04092000104e00003003a00ca3f07002a
:10a25000ea4f5000f9ff3a000c31ec000000060014
:10a26000889fbe008a9fbe0080057800bb049000d6
:10a2700050868000c810b400090450000808a300ec
:10a28000010032000804e800308680000805500014
:10a2900008017800890078000a0078009eda07003b
:10a2a0003a86880040868000808454005986880061
:10a2b00009004000080178008000eb00a8da0700e0
:10a2c000ba0598004f05be004f04be00000006000e
:10a2d000881f780008c2b30020888000a63f0700ce
:10a2e000884f5000fcff320020888000e040920040
:10a2f0000104e00001003a00bb3f07004f04780072
:10a3000000000600889fbe008a9fbe008c9fbe0092
:10a31000efff070020888000e04092000104e00089
:10a3200028003a003bb621000005eb00acc2b300a8
:10a33000fdc5b30008003700090078009fd9070069
:10a34000806d78000a05e80020888000e0409200d7
:10a350000104e0000e003a00873f07000044780047
:10a360008804fb00090078004fd907000000e000d6
:10a37000f1ff3a008c4f5400efff32008d4f540034
:10a38000edff3200e0c2b300804f5400eaff32001c
:10a3900020888000943f070040b621000a0040005a
:10a3a0000048eb000a00e00003003a0020b621005c
:10a3b0000008eb00070037005000200010db880089
:10a3c00004003700883f070040b621000048eb003a
:10a3d000f6ff37004f06be004f05be004f04be001b
:10a3e00000000600881f780000047800100020009c
:10a3f00010049800c3ff070010db80000000e0009d
:10a4000002003a00100498002900370021db800088
:10a41000a0022000808f50002500320041b62100ac
:10a42000914f100004003a00180090000000e8006e
:10a43000100498000200370040002000100498002b
:10a4400040b6210064da07000001e90031b62100be
:10a4500001004000a1c2b30090cf100006003a00f6
:10a4600040b62100020140000049eb0018009000b6
:10a470000000e8001004980018009000e20f50005f
:10a480000b003900e30f500006003600e50f5000c6
:10a4900007003e0041b621001800780048da0700a6
:10a4a0000300370051b621001800780044da070095
:10a4b0004f04780000000600551907000000fe0058
:10a4c000000006002000fa00889fbe008a1f780066
:10a4d00000047800a0fd2f000f00400038da0700cc
:10a4e000a0fd2f000f0040008c3207009800900064
:10a4f000e28f50001e00320010c0b3003a00390055
:10a50000e48f5000050032002f0039000040eb00be
:10a51000e58f500034003a0009003700a1fd2f00fc
:10a520008f804000180078001eda070000f0a700b6
:10a530000000ea000000e9004f00de002a003700ba
:10a5400098007800a0fd2f000f00400056da0700a9
:10a55000a1fd2f008f8040000080680000f0a70060
:10a560000000ea000000e9004f00de001e00370096
:10a570001804780088007800a0fd2f000f0040002c
:10a5800049da070000057800a0fd2f000f00400009
:10a5900011da070080047800080078000eda07005e
:10a5a00080845400a0fd2f000f004000890440006b
:10a5b00009056d000af0a7000a05ea000a00e90093
:10a5c0004f00de000800370098007800a0fd2f0043
:10a5d0000f00400034da070000f0a7000000ea0096
:10a5e0000000ea004f00de004f0578004f04be0077
:10a5f0000080fa0000000600889fbe008a9fbe000f
:10a600008c9fbe008e1f78000004be0040b6210063
:10a61000f1d9070080057800920180000800be0093
:10a62000800178002000b000808169004260af00a6
:10a6300000f0a0008381d2000180b0008101780089
:10a64000930188000000000010407800920188000b
:10a65000000000000085eb000004e000570032001d
:10a660000806be000005eb004eb621007f0060002a
:10a670008b0f50001a003a00940180000c00be00bd
:10a68000000178004000b000000169004260af00a6
:10a6900000f0a0000281d2000180b00000f0a6000e
:10a6a0008100e800010178009201880000000000ac
:10a6b000100178000080e8000200390000f0a000de
:10a6c0003220ec0090017800940188000000000026
:10a6d0000e007800ef3107000000e0002600320095
:10a6e0000a05e8006150b900430edd00cd06de002a
:10a6f0008d0676004306dd008c8fd2008d86d20059
:10a700000c0678000cf0a1008801d0000c00d000ed
:10a71000008641004220a8008d864c004200a9001e
:10a720004220ae004200a8000c86d30092018000b7
:10a730000c00be00800178002000b000808169001c
:10a740004260af0000f0a0008381d2000180b00021
:10a75000810178009301880000000000104078001b
:10a7600092018800000000000004e000bfff3a00f2
:10a770000085eb0011003700910180000c0078008b
:10a780002c00b0000c0068004260af000cf0a0008c
:10a790000080d2000d80b0000d007800900188008c
:10a7a000000000001c4078009101880000000000bb
:10a7b0000004e00001003a000085eb000a00780088
:10a7c0004f0778004f06be004f05be004f04be0085
:10a7d00000000600889fbe008a9fbe008c9fbe00be
:10a7e0008e1f78005bb6210029002000ddcdb3006c
:10a7f000fec5b3001c0037005f3e07000044780030
:10a800000805fb000a00780027d807000000e000d8
:10a810000c003a008e4f5400340032008c04780053
:10a8200040c2b300804f5400340032000040e900c1
:10a83000804f540031003200208880006a3e0700bb
:10a840000e0037000a0078005cd80700804d7800c1
:10a85000090678000d444400e14f5400070036001b
:10a860008904e8008b05e8000906e90020888000db
:10a87000e04092000104e000dfff3200000220000f
:10a88000800f5600010034000006780040b6210019
:10a890000c064000004eeb0040212d00112020004e
:10a8a00055ff07000000e0000400350071012000a2
:10a8b00011db880020db88001700370060962b0032
:10a8c000112020004cff07000000e00004003500cc
:10a8d0008101200011db880020db88000e0037009a
:10a8e0003000200010db88000b0037000a007800e1
:10a8f00032d80700804d7800d9ff37000a00780071
:10a900002ed8070041b62100898040008048780099
:10a910000906e800d9ff37004f0778004f06be0050
:10a920004f05be004f04be00000006005600fa00ae
:10a93000889fbe008a9fbe0040fd2f000f00400090
:10a94000a0bf9f0010002000b0bf9f006c80570088
:10a95000a4fe07003fb897000000e00002003a00a4
:10a9600010002000b0bf9f005c3807000005eb001e
:10a970008004eb00250037002fc097007c006000aa
:10a9800024003a0021fa2f008f8040006c8057008d
:10a99000ccfe07000004e0001e00320020fa2f0069
:10a9a0000f004000052f0700b13b0700f34f500098
:10a9b00004003e00a83b07008040780040c1b3007f
:10a9c000e12e07000b0178004fa09700dfa0970051
:10a9d000152f07000804e800ab3b0700f40f5400f4
:10a9e0000c003a007116210090162100cf2f0700ad
:10a9f000fb4f50000c003200973b07008040e900fd
:10aa00000040eb00d02e07004a0120000904780026
:10aa10008b00200020fa2f000f004000b437070001
:10aa20000000e000d4ff320010172100e32e0700e1
:10aa300008004500cf80de000001eb00fa2e070081
:10aa40004f05be004f04be000080fa000000060063
:10aa50004000fa00889fbe0080047800ec170700d1
:10aa6000893b07002088800021002000908f100083
:10aa700007003a0000182100d02e070060888000ef
:10aa80008000eb000001eb00e72e07007e3b070093
:10aa90004248dd00c1652100008040001001be0079
:10aaa000c0fb2f000f004000db300700c0fb2f0071
:10aab0000f004000c12e070070182100bf2e0700b4
:10aac00028b62100180078008000eb000001eb00a0
:10aad000d52e070010192100b82e070018007800a5
:10aae000e40f50005700320005003e00e10f500017
:10aaf00059003200e30f50005d003a005900370062
:10ab0000f70f500005003200f80f50002800320007
:10ab1000e50f500056003a005200370020db80005d
:10ab20004300dd00640040006100b80042212d00b8
:10ab3000132020000202d0008002d0000501420054
:10ab40004220a800818149004200a9004220ae00b5
:10ab50004200a8000281d3009101800002f0a6000b
:10ab60008301e800030078009001880000000000e5
:10ab700002007800100178000080e800020039002f
:10ab800000f0a0003220ec009001780091018800d4
:10ab900000000000c0fb2f000f0040009e300700a7
:10aba000c0fb2f000f004000842e07003500370047
:10abb00020db80004300dd00640040006100b8003d
:10abc00062962b00132020000202d0008002d000e9
:10abd000050142004220a800818149004200a900ed
:10abe0004220ae004200a8000281d3009101800003
:10abf00002f0a6008301e8000300780090018800bd
:10ac00000000000002007800100178000080e800d9
:10ac10000200390000f0a0003220ec009001780022
:10ac20009101880000000000c0fb2f000f004000d1
:10ac300079300700c0fb2f000f0040005f2e070097
:10ac40001000370020db8000cf80de000001eb0029
:10ac5000752e07000b003700e0192100572e070062
:10ac60000800370040b62100542e070005003700c9
:10ac700040b62100f1c1b30090cf100001003400b4
:10ac80004e2e0700003b070011c0b3002088800053
:10ac900061409a0089007800e0b3210028d70700be
:10aca000881f7800000478000808a3000100320023
:10acb0000804e800308680000804500050868000b8
:10acc000c810b400800f540002003e007000200045
:10acd0005fff070038868800080078004f0478007e
:10ace000000006006000200059ff07000000060079
:10acf000889fbe008a9fbe008c1f780000057800e8
:10ad0000208880001c3d070028888000e8409200d1
:10ad10008004eb000104e00022003a005c00200007
:10ad20008000fb000103b100e98f500006003e00e7
:10ad3000010478008a0f5400120035000c007800de
:10ad400043ff07000f003700f00f55000a003a00dc
:10ad50008005fb000b007800ebd607000000e00048
:10ad6000050032000b00780014d7070098fc2f0074
:10ad70000004440003003700080078001a3d070073
:10ad8000080037008ac8b900800444002088800089
:10ad9000f93c070028888000e84092000104e000a8
:10ada000dfff32004000200010db880029db880034
:10adb0004f0678004f05be004f04be00000006009d
:10adc000889fbe008a9fbe008c1f7800208880006c
:10add000e93c070021888000e14092000104e00086
:10ade0005d003a000004e0005d0034008004eb00e8
:10adf0000045eb002bc7b3004cb621000a04e0006d
:10ae00000f003a0018c0b30021c2b300814f5000b8
:10ae100032003200c1c5b300814f500003003a0038
:10ae2000084578000044eb002c00370089004600fc
:10ae3000804878008904e8000044eb0027003700d0
:10ae40008b4f50001a00320007003c0021c2b300b3
:10ae5000814f500008003200e1c6b300814f50001e
:10ae60001a003a001200370041c7b300814f50006a
:10ae700016003a00070037000900460021c2b3005f
:10ae8000014878008904e8000045eb000a44780096
:10ae9000120037000900460091c0b3000148780055
:10aea0008904e8000045eb000a4478000b003700f5
:10aeb00009004600a1c0b300014878008904e800f9
:10aec0000045eb000a4478000400370060002000d1
:10aed000dffe07000045eb000a4478002088800070
:10aee000a53c070021888000614192000204e00037
:10aef00005003a000804e00013003a000004e000f6
:10af0000beff3c001700370040b621008904400016
:10af1000804ceb000804e0000300320001007800e0
:10af2000b13c07000200370060002000c8fe0700a7
:10af30005000200010db88004f0678004f05be004f
:10af40004f04be000000060040b621008904400006
:10af5000804ceb00f1ff37008004eb00010037006c
:10af60008004eb0040b6210089044000804ceb00d7
:10af7000edff3700889fbe000a51e2000200320058
:10af80000a71ef003d0137000000eb0010db880084
:10af900041b62100804878002088800060409200ff
:10afa0000004e00035013a00c9fc07002088800059
:10afb000713c070000447800e14f440002003a0071
:10afc00020b621000008eb008804fb00090078008f
:10afd00043d607000000e0000600320009007800b8
:10afe00076d6070041b6210080487800f9fd0700b9
:10aff000220137000800fb000003b100e90f5000f8
:10b0000005003e0020888000773c0700a00020005b
:10b0100037ff0700190137000804fb00cfc4de002a
:10b020006a045400e0845c0020052000800f540076
:10b03000e08f5c0011013e000806010001013700ad
:10b040000e0137000d013700fe0037000b013700fd
:10b050000a013700090137000801370007013700ee
:10b0600006013700050137000401370003013700ee
:10b07000020137000101370000013700ff003700ef
:10b08000fe003700fd003700fc003700fb003700f2
:10b09000fa003700f9003700f80037004c0037009d
:10b0a0003c003700380037006b003700f3003700f2
:10b0b0003b003700b9003700c000370056003700aa
:10b0c00045003700c50037004b003700eb00370064
:10b0d00059003700e9003700e8003700e700370083
:10b0e000e6003700e5003700e4003700e3003700f2
:10b0f000e2003700e1003700e0003700d8003700f9
:10b10000be003700840037005b0037006200370064
:10b11000c2003700c6003700d8003700d70037001c
:10b12000d6003700d5003700d4003700d3003700f1
:10b13000d2003700d1003700d0003700cf003700f1
:10b14000ce003700cd003700cc003700cb003700f1
:10b15000ca003700c9003700c8003700c7003700f1
:10b16000c6003700c5003700c4003700c3003700f1
:10b17000c2003700c1003700c0003700bf003700f1
:10b18000be0037000b00370000012000d8fe07008a
:10b19000ba00370020002000d5fe0700b7003700b6
:10b1a0008001200010db88007200400020db880056
:10b1b000b20037009001200010db8800208880005a
:10b1c000ed3b07000000fb0020db8800ab003700f0
:10b1d000fbfe0700a90037006000200010db88009c
:10b1e000b1c2b30040b62100014878000000e80079
:10b1f0000048eb00a10037007000200010db880041
:10b20000d1c2b30040b62100014878000000e80038
:10b210000048eb00990037008000200010db880018
:10b22000a1c2b30040b62100014878000000e80048
:10b230000048eb00910037009000200010db8800f0
:10b24000f1c2b30040b62100014878000000e800d8
:10b250000048eb0089003700a000200010db8800c8
:10b2600051c2b30040b62100014878000000e80058
:10b270000048eb0081003700f000200010db880060
:10b28000d1c3b30040b62100014878000000e800b7
:10b290000048eb0079003700e1c3b30040b621005d
:10b2a0000148780020888000b33b0700d1c3b30079
:10b2b000814f500007003a002001200010db880079
:10b2c00050b62100014878000000e8000048eb007b
:10b2d0006a003700c1c3b300814f500007003a0035
:10b2e0000001200010db880050b6210001487800e2
:10b2f0000000e8000048eb0060003700100120006b
:10b3000010db880050b621000048eb002088800048
:10b31000b53b070059003700c1c3b30040b6210058
:10b320000148780020888000933b0700d1c3b30018
:10b33000814f500007003a004001200010db8800d8
:10b3400050b62100014878000000e8000048eb00fa
:10b350004a003700e1c3b300814f500008003a00b3
:10b360000001200010db880081c0e90050b62100f8
:10b37000014878000000e8000048eb003f0037007b
:10b380003001200010db880050b621000048eb009f
:10b3900020888000943b070038003700c000200060
:10b3a00010db880081c2b30040b62100014878005c
:10b3b0000000e8000048eb0030003700d00020001b
:10b3c00010db880091c2b30040b62100014878002c
:10b3d0000000e8000048eb0028003700b000200023
:10b3e00010db8800c1c2b30040b6210001487800dc
:10b3f0000000e8000048eb0020003700e0002000db
:10b4000010db8800b1c3b30040b6210001487800ca
:10b410000000e8000048eb00180037008001200021
:10b4200010db88006d00400020db8800130037002f
:10b430008001200010db88007100400020db8800c4
:10b440000e0037000c31ec00208880002100200025
:10b45000908f100002003a00c6fe07000700370078
:10b460001000200010db8800a1c0b30040b621000e
:10b47000014878000000e8000048eb004f04be00df
:10b4800000000600bbfe070020b621001000780077
:10b49000ef00500010c0b300e58f500002003600ee
:10b4a0000af1b7000040eb0000000600b1fe070003
:10b4b00020b6210010007800e800500010c0b30052
:10b4c000e28f5000020036000af1b7000040eb00a6
:10b4d00000000600a7fe070020b62100100078003b
:10b4e000e600500010c0b300e18f500002003600ab
:10b4f0000af1b7000040eb00000006009dfe0700c7
:10b5000010db8000f80f50000a003a0021db8000b9
:10b5100010c0b30022022000828f500008003200c9
:10b52000e18f5000060032000201e800828f5000d7
:10b530000300320010c0b3000af1b7000040eb0076
:10b54000000006002000fa00889fbe008a9fbe000f
:10b550008c1f780087fe070010db8000e10f500091
:10b560003e003a00300037000804e00026003d00ad
:10b57000bf3807000080fb007f046400088454008b
:10b58000880f500002003400a0c0b300a32b0700b6
:10b59000940180000a00be00000178002000b00085
:10b5a000000169004260af0000f0a0000281d200fb
:10b5b0000180b00000f0a6008100e80001017800e1
:10b5c0009201880000000000100178000080e8006f
:10b5d0000200390000f0a0003220ec009001780059
:10b5e000940188000000000060fd2f000f00400063
:10b5f000092e070060fd2f000f004000ef2b070011
:10b600000c407800852b07000a0078008a00b00003
:10b610000a0068004260af000af0a0000080d2007b
:10b620000b80b000040037006a212d001b20200091
:10b63000690220000cc2b300900180009b018800c9
:10b64000000000001a44780090018800000000000b
:10b650000804e000c4ff3a000c003700f70f500068
:10b6600003003a0020db8000e7fa070007003700fc
:10b67000f80f500003003a00d0002000e2fa070063
:10b6800002003700e0002000dffa07004f067800d4
:10b690004f05be004f04be000080fa000000060007
:10b6a000881f78000004780032fe070010db80005d
:10b6b000880f50000200320060002000e4fc070008
:10b6c0004f04780000000600889fbe008a9fbe00dd
:10b6d0008c9fbe005031ec00b00590009b067800b6
:10b6e000c0002000eeff070022fe07000005eb006f
:10b6f0001800200029b621001c0020002600370079
:10b70000e50f50000900320003003e00e10f500039
:10b710001c003a001f003700eb0f500015003200ec
:10b72000ed0f500017003a001e0037000a00e0003d
:10b730000200320060002000c5fc070040b6210076
:10b74000a5d507000000e80055fd070000057800ba
:10b7500041b621000a00780099d50700080044008e
:10b76000008045000a0878000804e8000c0578000d
:10b77000080037000a00e00005003a000804e8006d
:10b780000400370060002000b1fc07000100370012
:10b790000005eb00f7fd070019007800ed0f5000e1
:10b7a000d7ff3a00888f5600020036003000200094
:10b7b000a7fc07008d06e8008d0f5400020036003c
:10b7c00040002000a2fc07005031ed004f06be00f3
:10b7d0004f05be004f04be0000000600e48747008e
:10b7e000889fbe008a9fbe008c9fbe008e1f78007f
:10b7f000800578003b409000e24f500006003a0080
:10b800003b00900080bf9f00100778000006eb000f
:10b8100019002000080037003b0690001c87fb0041
:10b820008000eb0081bf9f0029002000e34f500003
:10b830000100320019002000c000200098ff07001e
:10b84000ccfd07000005eb0028b621008886e80043
:10b8500029003700eb0f50001d00320005003e00ac
:10b86000e10f500023003200e40f50001d003a00a9
:10b8700004003700ed0f500022003200f90f500095
:10b8800018003a000a00e0000200320060002000c8
:10b890006ffc07003b409000e24f500007003a0069
:10b8a000098044008fb89700008040001d08780090
:10b8b0008904e8001a0020000e0037000900460045
:10b8c0001d4878008904e8001a00200009003700ac
:10b8d0000a00e00006003a00600020005cfc07005f
:10b8e000040037006000200059fc07000100370009
:10b8f0000005eb009ffd070018007800ed0f5000d9
:10b90000d4ff3a008e8f540002003d00300020002a
:10b910004ffc07003b409000e34f500004003a000a
:10b920000e87e8008e8f540004003c0005003700ad
:10b930000e07e8008e8f5400020034004000200003
:10b9400043fc07004f0778004f06be004f05be00be
:10b950004f04be004f00b1000000060085fd070047
:10b9600010db8000e20f5000020036004000200093
:10b9700037fc0700000006002000fa0061fa07000b
:10b9800010db80000000e00002003a0030002000e0
:10b990002ffc0700a102200040b62100f7d40700c9
:10b9a0000000e000020032005000200028fc0700e8
:10b9b00041b6210000fe2f000f00400000d5070017
:10b9c00050fa070010db80000000e00002003a009f
:10b9d000300020001efc0700a102200040b621001c
:10b9e000e6d407000000e000020032005000200012
:10b9f00017fc070041b6210000fe2f000f00400099
:10ba000067340700d5ff07000080fa000000060039
:10ba1000af02b000889fbe008a9fbe008c9fbe0010
:10ba20008e1f78009837070036fa070010db800079
:10ba30000000e00002003a003000200004fc070093
:10ba4000a102200040b62100ccd407000000e00095
:10ba50000200320050002000fdfb070040b621002c
:10ba600023330700800578000b00e0004c00320013
:10ba70005b3707008046eb000eceb300390037007d
:10ba80005a407800ea4f500005003200ed4f500058
:10ba90001d003200e94f500013003a000300370048
:10baa000a0c0b3005d2a07001700370000c2b30032
:10bab0005a2a07000cc2b300070037006c37070092
:10bac0000004e00002003a008d46e8000e00370056
:10bad0000c407800512a070065370700634060007a
:10bae000f6ff3a00080037008e40400042c6b3001f
:10baf00082cf500002003e00482a070002003700b3
:10bb000000c2b300452a0700593707000004e000cf
:10bb100001003a008d46e800f3cf56000e003a00cf
:10bb200041c1b3000040eb00872a070071162100d5
:10bb3000901621007d2b0700fb4f500015003200ae
:10bb4000400120008e2a070031c1b3000040eb0005
:10bb50007d2a07008046eb008904e800890f540025
:10bb6000c7ff3e0082022000a1fc2f008f80400012
:10bb70000b00780016330700000478000800e0008e
:10bb8000040032009afc2f000f0545008004eb00f2
:10bb9000bbff37000b007800951307000200370049
:10bba00081320700643b07006cff07004f077800f5
:10bbb0004f06be004f05be004f04be00af02b100ed
:10bbc00000000600cf04b000889fbe008a9fbe0020
:10bbd0008c9fbe008e1f78002b370700c9f9070025
:10bbe00010db80000000e00002003a00300020007e
:10bbf00097fb0700a102200040b621005fd4070098
:10bc00000000e000020032005000200090fb07001e
:10bc100040b62100b6320700000778000e00e000b1
:10bc20004d0032000040eb0080ef9f0080f79f0046
:10bc3000004678008006eb008004eb000bceb300da
:10bc40000204200081fa2f008f8040000e0078004f
:10bc5000df320700000578000a00e0000d003a001e
:10bc600001c0b300f884540081f77c0008c2b3001f
:10bc70000200370008407800e8290700fc3607007a
:10bc8000ff4f5000fbff3600788057004b2a07001b
:10bc90002e0037000004eb006700640015003a0036
:10bca00000c2b300dd29070078805700432a07004f
:10bcb000f53607000c46e800f44f560006003a003f
:10bcc0007116210090162100182b0700fb4f500021
:10bcd0001e0032000046eb00410020000d007800fd
:10bce000962a070000c2b300cc290700e886460068
:10bcf0008004eb0082fa2f00080141006f407900b8
:10bd00000b414000f1c5b300814f510004003e00db
:10bd1000f880540080f778008904e80004003700b8
:10bd200003c2b300f880540083f778008904e80068
:10bd30000080fb0021002000802a07000804e800a2
:10bd4000880f5500d4ff3e00bdff37000e0078007d
:10bd5000271307000200370013320700f63a0700e6
:10bd6000fefe07004f0778004f06be004f05be00dd
:10bd70004f04be00cf04b1000000060061f90700c7
:10bd800010db80000000e00002003a00bd21070047
:10bd90000b003700e50f500009003a00a102200017
:10bda00040b62100f5d307000000e0000200320099
:10bdb0005000200026fb070040b62100b1210700fb
:10bdc000e6fe0700000006005600fa00889fbe004d
:10bdd000c0fd2f000f004000c0af9f0080fd2f006e
:10bde0000f0040007ff907005fa897000000e00007
:10bdf00002003a003000200015fb0700373307002f
:10be00000004eb0099c5b300230037006fc0970012
:10be10007c00600020003a0061fa2f008f80400013
:10be200080fd2f000f004000a6f907000004e0008d
:10be300019003200801b2100e029070060fa2f0062
:10be40000f004000dd290700011c2100301c2100eb
:10be5000b62a07000000fb00d8d20700fb4f5000b5
:10be600012003200894f50000b003a0060fa2f0098
:10be70000f00400061330700cb3107000000e000f5
:10be800003003a000804e8007f360700020037008c
:10be9000a93a07000500370060fa2f000f004000a4
:10bea000933207000000e000d8ff32006140b90083
:10beb0000001eb00dc290700a01c2100bf290700be
:10bec000a6fe07004f04be000080fa000000060036
:10bed0006000fa00889fbe008a1f780009f90700f9
:10bee00010db80000000e00002003a00300020007b
:10bef000d7fa0700a102200040b621009fd3070017
:10bf00000000e0000200320050002000d0fa0700dc
:10bf100041b62100a0fd2f000f004000a8d307006c
:10bf2000f8f8070010db80000000e00002003a0093
:10bf300030002000c6fa0700a102200040b6210010
:10bf40008ed307000000e000020032005000200005
:10bf5000bffa0700a0fd2f000f004000e4310700ea
:10bf6000000478000800e0001c00320040b6210008
:10bf7000693207000000e00018003a0040b62100d6
:10bf8000db310700800478000900e0001300320074
:10bf90000a0420000a017800a1f92f008f804000d8
:10bfa000080078000a3207000000e00006003200b6
:10bfb00000017800a1f92f008f804000090078006f
:10bfc0000a320700f3ff37000800780088120700e4
:10bfd000090078008612070002003700723107005e
:10bfe000553a07005dfe07004f0578004f04be007c
:10bff0000080fa0000000600881f780000447800e6
:10c0000050868000c810b400c610e30002003e0055
:10c01000d00020008efa07005186800001007800d1
:10c02000c810b40000017800084978008100e800d9
:10c03000518688004f0478000000060020c3b3003a
:10c04000edff07005186800001007800c810b400a1
:10c0500000027800e3cfb30081c15100520c2100ef
:10c06000124178000201fb000201e90002014100d7
:10c07000410821000281400012ca4100528680001e
:10c0800002007800c810b40000027800e3ff2f001f
:10c0900002815100530c2100934178008301fb0081
:10c0a0008301e90083814100838040001101410048
:10c0b0004811de0012429800cab0ec0000f80700f8
:10c0c000c570ed005031ed0000000600c0002000fa
:10c0d00073fd0700d000200071fd070060c1b300b0
:10c0e000c5ff070000000600c00020006cfd07002f
:10c0f000d00020006afd0700e0c0b300beff0700cb
:10c100000000060030c3b300bbff0700c550ec00c1
:10c11000c5f0b7000000fb0000004000410821000e
:10c120000080400051868000010878000040eb004c
